:400000000040002011000000590100005901000008B5054B1A6803F53F5302331A6000F051FA00F09BF800BFFA46004010B5054C237833B9044B13B10448AFF30080012394
:40004000237010BD28C1FF1F00000000E420000008B5064B1BB106480649AFF300800648036813B1054B03B1984708BD00000000E42000002CC1FF1F08C1FF1F0000000061
:4000800008B5344B1A782F3302F0FE0203F82F2C93F84B2002F0FE0283F84B201A7802F0FE021A7013F8012C02F0FE0203F8012C13F80C2C02F0FE0203F80C2C13F82A2CD1
:4000C00002F0FE0203F82A2C13F82E2C02F0FE0203F82E2C13F80D2C02F0FE0203F80D2C13F82B2C02F0FE0203F82B2C13F8082C02F0FE0203F8082C093B1A7802F0FE02D9
:400100001A705A7B02F0FE025A731A7B02F0FE021A7313F8112C02F0FE0203F8112C13F8122C02F0FE0203F8122C13F8152C02F0FE0203F8152C13F8162C02F0FE0203F8F3
:40014000162C93F8552002F0FE0283F8552000F0F1FBFEE702500040FEE7000008B51249124B4A1C1AD053F8106C53F80C0C53F8085C0022AA4200EB020403D0B4588450D3
:400180000432F7E753F8040C0022824203D00025A5500432F9E710330139E2E701F066FFFFF76EFFFEE700BF000000004023000008B5114A114B1A609A6842F400729A604F
:4001C0000023032B98BF0E4A4FEA830094BF52F823100C490C4A0133302B1150F1D10B4B19780B4B19700B4B1A6000F017F80A4B00221A6008BD00BF0004FA050CED00E030
:40020000000000005901000000C0FF1FBC76004004C1FF1F08ED00E000C1FF1FF8B572B6634B01221A700622A3F5A0631A705222A3F580731A705F4B19251A785E4BD2B2D0
:400240001A7040F61802A3F27F431A8041F2512223F8022C0024594B4FF4F0701B7803F0010343EA440400F09BFB013D04F0030418D0032CEFD1524B4FF480721A8007222F
:400280001A70504A002448211470917002221C705C7103F8032C93F8E42642F0040283F8E42600E0FEE7484B0021234418689A88063401F00AFF2A2CF5D100231946434C2C
:4002C00000221859303420F0FF06C0B2450004EB4104AA4208D004EB020CA75C9CF801C0023207F806C0F4E70433302B0144E6D1374B384C1A7842F002021A701A7C42F06C
:4003000002021A74344A137843F040031370334B197841F010011970314B186859681D4603C4198955F80A0F21806968E83403C429891846218050F8141FA4F64864C4F8DD
:40034000721D41681846C4F8761D50F81C1FC4F8821D41681846C4F8861D50F8241FC4F8921D41681846C4F8961D50F82C1FC4F8A21D41681B48C4F8A61D53F8341F016050
:400380005968194B4160197841F008011970174B17491B78DBB203F007001B0908704B70144B442119700FCA07C42380F8BD00BF004800400F010049A14600402542004039
:4003C0000440004006400040E8200000142100000350014000510040A0430040C2430040722100006251004022430040CF0100496E58004076580040004710B500232AB1C7
:40040000013A4418A45C2344DBB2F8E7184610BD0138092842D8DFE800F0050B11171D232F29353B0902C1F5FF3101F5E0713BE00902C1F5FF3101F2C11138E00902C1F5CA
:40044000FF3101F2C5112AE00902C1F5FF3101F2C9112CE00902C1F5FF3101F5E87123E00902C1F5FF3101F2D1111DE00902C1F5FF3101F5EB7112E00902C1F5FF3101F58D
:40048000E9710CE00902C1F5FF3101F5EA7106E00902C1F5FF3101F5EC7108E000210B78487843EA002070470878C0B270470B784A788878000440EA02201843CB7840EA34
:4004C0000360704710B50B4B1A7802F0C002802A0ED100241C7002202146FFF799FF38B121460220FFF794FFBDE81040FFF784BF10BD00BFFA460040F8B505462946032072
:40050000FFF786FF294607460420FFF781FF013700EB072729460320FFF77AFF0024013000022646B84209D210F8013B5A1ED2B2FD2A1C4498BF0126E4B2F3E703202946B9
:40054000FFF766FF114A013097424FEA00234FEAD30314BFFF084FF48047BB4206D203F19042127801331444E4B2F6E701202946FFF74EFF6442E4B2844204D1002E14BF9D
:4005800000200620F8BD0620F8BD00BFC0FF01002DE9F04FADF51B7D804600F015FA10B1002000F0E1FA00F03BFC62B600264FF00A093546B8F1000F14BF4346FF2304A8D2
:4005C0004FF4967101AA00F05BFCB8F1000F03D009F1FF395FFA89F9B9F1000F02D00028E8D101E0002878D1BDF80420062A40F289819DF81030012B40F084819DF8123017
:400600009DF8134043EA0424E71D04AB234497425879197900F274819B79172B40F07281231D9BB200223BB10DF10F07FF5C013B3A4492B29BB2F6E7524241EA002392B26F
:40064000934240F0618151E0002E00F05B81012C40F05881012F00F25581B24B1B681B68C3F30742974273D1C3F307238DF814301B0A8DF815300024FF238DF816308DF8ED
:400680001740042101238DF8103000220B1DADF806108DF811408DF812108DF813209BB20DF10F00C05C013B02449BB292B2002BF6D1524292B205AB5A54120A0DF11503B8
:4006C0005A5417220DF116035A54073104A889B20DF10602962300F0B2FBB8F1000F3FF469AF002E00F01981012663E79DF811209DF81470A2F131030A2B00F2FE8001A1BA
:4007000051F823F03107000049060000FB0800005B0700000B080000FB080000110800002F0800005B0700004B080000D9080000002E00F0E780002C40F0E4802046FFF7D4
:40074000DBFED0F1010038BF00208DF81400C1E08CBF00234FF4807388E7342A12D1002E00F0D080032C40F0CD80A7F140033F2B8CBF4FF4907510254FA800212A4601F099
:40078000A4FC05E0002E00F0BD80022C40F2BA80033C4FA828440DF11701224601F08CFCA7F1400325443F2BADB203D800F0B6F9102301E04FF490739D4240F097809DF88A
:4007C00016109DF815303F2F43EA01210FD8554B01EB07221B6892B21B68C3F30F2013F0FF0F1CBF013080B28242C0F082802B464FAA384600F030F900280CBF00240A2466
:40080000012600F0D7F9002578E0002E7AD07DE0002E77D02F19B7F5967F71D84FA82844224605A901F048FCBDB2002466E0002C68D13D4A02AB92E8030005AA83E80300FE
:4008400082E80300012608211CE7002E5AD0032C58D19DF815309DF816A043EA0A2AA7F140033F2B07D831484FEA0A111022FFF7C4FD04462AE04FEA072B0AEB0B010020C8
:4008800009024FF48072FFF7B8FD3F2F04461DD80BF1107BD3444FEA4B1B002313F80B2001331444202BE4B2F8D1012F0ED1BAF1FF0F0BD100210520FFF7AAFD201AC4B29D
:4008C00000210620FFF7A4FD201AC4B264428DF8144000240121D5E60020FFF70DFE10B9134B80221A7000F041F90BE00126002506E0012600250A2400E005240021C1E6E4
:400900000324FBE70424F9E70824F7E7B8F1000F01D145464EE60025E6E60DF51B7DBDE8F08F00BF0CC1FF1FB021000000800040FA46004070B50020FFF7DEFD154D002849
:400940002B684FF000001C68014622460CBF00260626FFF752FD6B681B78181A00F0FF00984200D114B9002000F0FEF80A4C237803F0C003402B00D01EB100202070FFF7B4
:4009800007FE1420FFF704FE80232370BDE8704000F0ECB80CC1FF1FFA460040000000000230800800F0058000BF013800467FF4FCAF7047EFF3108072B6704780F31088DE
:4009C000704700BFAFF3008038B500F02DF900F0D9F9002838D100F00FFA072804460FD11B4B1A78900703D4012000F0DBF8F7E71A78910704D51B789B0814BF0724002494
:400A000000F0E0F90CBB00F00FF900F0BBF9D8B9012000F09DF9072805D04FF0FF3410E02B789B07F9D40B48022100F00FF90228074DF5D12B789A0703D4012000F0B2F852
:400A4000F8E700F0BFF900E00424204638BD00BF2247004050C1FF1F4128F8B505460E4617461C460AD8C11E3C298CBF002101213F2804D8B6F5807F29D805E00121812E29
:400A800028BF0121102C22D10FB301BB00F07AF9F8B92346284631463A4600F0F1F80728044611D11B4B1A781F4612F0020F03D1012000F077F8F5E71A78900702D51B7837
:400AC0009B0808D04FF0FF3400F07CF91FE001241DE004241BE0104B28461A7831465B7800F016F907280446EED13A78094B910703D4012000F056F8F7E71A789207E1D5F1
:400B00001B789B080CBF00246FF00004DCE72046F8BD00BF2247004050C1FF1F08B5FFF749FF0F4B1A780C3342F0080203F80C2C1A7942F008021A71C82283F855231A785A
:400B400042F010021A701A7C42F010021A74054B1B789B06FBD5BDE80840FFF72FBF00BFA04300400047004001BE7047024B1A7842F001021A707047F646004010B504465B
:400B8000B4F5004F064B05D91868FFF709FFA4F50044F5E758686043BDE81040FFF700BF14C1FF1F024B1B7A5843FFF7F9BE00BF14C1FF1F08B5FFF7FDFE00BF00BF00BF10
:400BC00000BF00BF00BF00BF00BF00BF00BF00BF00BF00BF00BF00BF00BF064B1A8892B242F004021A801B88BFF36F8FBDE80840FFF7E4BE00480040054B00F01F001B68F7
:400C000000F1100253F8220043F82210704700BF08ED00E000F01F0000F16040490100F56440C9B20170704708B5FFF7C3FE064B1A7842F008021A701A7C42F008021A74E9
:400C4000BDE80840FFF7BABEA043004070B506460D460024E3B2AB420CD2074B1B78DB0703D40120FFF79EFFF7E7044B1B7833550134EFE7284670BD22470040204700401E
:400C8000F0B5214D2C78A40739D5204CB6262670D5262670022626702E7806F0020606F0FF0576BB202B207001D000250CE03F28FBD801EB00273F02EE5D0135F6B2B5F5AA
:400CC000807F2670F8D1F0E7AEB29E4203D2565D01352670F8E7B3F5807F01D00720F0BD3F28FBD800F5103001EB0021490100235A5C0133D2B2202B2270F9D1EEE7042009
:400D0000F0BD0920F0BD00BF224700402047004070B50D4D2C78A60712D50C4CB6262670D8262670052626702D78AD070AD42070080AC9B22070217022702370072070BD5D
:400D4000042070BD092070BD22470040204700400A4A137899070CD5094BB6211970E12119700E2119701278920704D4187007207047042070470920704700BF22470040A1
:400D80002047004038B5FFF715FE0C4B197879B901250B4A1D7014682C400AD0146824F00104146000BF00BF00BF5D600C4600E00424FFF703FE204638BD00BF44C1FF1F21
:400DC0000400084010B5FFF7F5FD094B002259681A70012908D107490C6844F001040C6000BF00BF00BF5A60BDE81040FFF7E6BD44C1FF1F04000840074B1B789B0708D575
:400E0000064BB6221A70E0221A700D221A70072070470420704700BF224700402047004008B562B60020022100F04EF9014B01221A7008BD4CC1FF1F012000F0F1B9F8B552
:400E400007460E46154603EB83030220394640225C0000F0A7F9022000F086F930B92CB10120013CFFF78AFEA4B2F4E7022000F07BF910B12E800020F8BD1020F8BD000000
:400E80002DE9F84303EB83035C00234B16461A7880460F469946AAB1254600F053F930B92DB10120013DFFF769FEADB2F5E700F049F9A8B100F04CF9FFF7BEFF002389F8E4
:400EC00000300DE000F044F950B100F03BF938B1FFF7B2FF04E054B1FFF750FE013CA4B2012000F041F901284FF00100F3D100F03BF901280AD14146402F34BF3A464022C8
:400F000000F0A4F930800020BDE8F883002333801020BDE8F88300BF4CC1FF1FF8B5FFF749FD394B01251A78022642F001021A701A7C364C42F001021A7403F5E7531833C0
:400F40001D7003F8946C13F88D2C074602F07F0203F88D2C0020FFF725FE2378284603F0F90323702A4B1A7802F0DF021A7023782B432370FFF716FE2820FFF713FE254B24
:400F800030461A7802F07F021A701A7802F0BF021A70237833432370FFF704FE2378384643F0040323701C4B00241C705C70FFF705FD1A491720FFF71FFE17200721FFF7FE
:400FC00029FE17491520FFF717FE15200721FFF721FE14491820FFF70FFE18200721FFF719FE20461049FFF707FE20460721FFF711FE28460D49FFF7FFFD28460721BDE875
:40100000F840FFF707BE00BFA54300409443004012600040F851004084600040131700001117000065150000A9160000DD160000184B012210B51A70174B4FF400041C60E8
:401040004FF080741C601A6002221A60134B00241C70134B01B103221A70124B124A187000231370114A01201370114A1370114A1370114A1370114A1370114B03221A7073
:40108000802203F8202CFFF78BFC0E4B04221A7010BD00BFE4C1FF1F00E100E06AC1FF1F0960004064C1FF1F69C1FF1F65C1FF1F68C1FF1F54C1FF1F67C1FF1FDDC1FF1F74
:4010C000286000401260004070B5074C064623780D461BB9FFF722FF0123237030462946BDE87040FFF7A4BF4DC1FF1F0C4B01221A700C4A002313700B4A13700B4A1370B3
:401100000B4A13700B4A13700B4A13700B4A13700B4B03221A70802203F8202C704700BFE4C1FF1F6AC1FF1F69C1FF1F65C1FF1F68C1FF1F54C1FF1F67C1FF1FDDC1FF1FD7
:4011400028600040014B1878704700BF69C1FF1F044B1A7802F0FF001AB118780022C0B21A70704768C1FF1F024B0C2202FB00304078704770C1FF1F0138C3B2072B0CD89A
:40118000074A1B01DBB2985C01329B5C00F00F0043EA0020023880B270470020704700BF0C600040431EDBB2072BF0B52FD8184E0C2404FB0064E7881B01BFB2154DC7F587
:4011C0000077DBB2BA421D4403D9E288C2F5007292B20C2404FB0064E7780F4C47EA12271F55D7B201341F5549B90C2202FB0060002242704179094AC9B29954F0BD0024D7
:40120000A7B29742F1D20F5D01342F70F8E7F0BD70C1FF1F886000400C6000400E600040431EDBB2072B0BD8064A0C2101FB00200022427041791B01034ADBB2C9B2995494
:40124000704700BF70C1FF1F0E600040F8B5431EDBB2072B07460D46144616D8B9B11B010C4EDBB21E44FFF787FFA04228BF204684B200239AB2A24203D23278EA54013352
:40128000F8E73846FFF7CCFF02E0002400E00C462046F8BD8860004030B51A4B1A481A8801780A4492B219491A80194BCAB21C88A4B284B1174A91420CD05A681278D2B251
:4012C00001F8012B5A6801325A601A88013A92B21A80EAE7082203780F4C082B0F4B00D042B10F490D7885F080050D700F212170022101E00221217019700A4B02701A7097
:4013000030BD00BFE0C1FF1FDDC1FF1F0060004058C1FF1F0860004055C1FF1F6AC1FF1F66C1FF1FDEC1FF1F074B02221A70074B80221A70064B0F221A70064A0023137008
:40134000054A0120137070476AC1FF1F66C1FF1F55C1FF1FDDC1FF1FDEC1FF1F10B5154B1A78154B02F00F021988023AD2B2114489B219801149124B188880B278B172B10F
:40138000586811F8014B013AE4B204705868D2B2013058601888013880B21880EBE7094B1A70094B1A7882F080021A70074B0B221A7010BD29600040E0C1FF1F00600040F1
:4013C00058C1FF1FDEC1FF1F66C1FF1F55C1FF1F064A06231370064A01201370054B80221A70054B00221A70704700BF6AC1FF1F55C1FF1F66C1FF1FDEC1FF1F054B9A68D1
:401400003AB19A68044910709A680988518000229A60704758C1FF1FE0C1FF1F08B5124B1A78D2B21A701B78DBB21A0602D50F4A137008BD0220FFF7E1FF0D4B1B7803F07D
:401440006003202B05D0402B06D043B900F094FC04E000F0E1FD01E000F0D2FD10B9034B03221A7008BD00BF2860004055C1FF1F0060004008B50849084B01201A8809784F
:401480000A4492B21A80064B00221A70FFF7B6FF044B03221A7008BDDDC1FF1FE0C1FF1F6AC1FF1F55C1FF1F08B50C4B1B78DBB2042B07D0062B09D0022B0DD1BDE8084061
:4014C000FFF7D8BFBDE80840FFF748BF0320FFF795FF034B03221A7008BD00BF6AC1FF1F55C1FF1F08B5054B002201201A70FFF785FF034B03221A7008BD00BF6AC1FF1FAC
:4015000055C1FF1F08B50A4B1A7832B11978094A41F08001117000221A70074B002201201A70FFF76BFF054B03221A7008BD00BF54C1FF1F086000406AC1FF1F55C1FF1FD3
:40154000074B1B78DBB2042B05D0062B05D0022B05D1FFF7A1BEFFF7C5BFFFF7D3BF70476AC1FF1F10B51D4C2378DBB2DA0633D518060AD503F00F03012B2DD1FFF74EFFE8
:40158000174B1B78190609D510BD5A0602D5FFF7D7FF03E09B061FD5FFF786FF23781B061AD4104B104A1B78127813430F4A13701278934210D10A4B08491A782078D2B234
:4015C000000605D41A78D2B20A700A7802F00F021B789A42EFD110BD10BD00BF2860004055C1FF1F66C1FF1FDEC1FF1F29600040054A00231380054A916819B191680B701D
:4016000092685380704700BFE0C1FF1F58C1FF1F10B50F4C23889BB213B9FFF785FE14E00C4B02221A700C4B00221A70FFF7E0FF0A4B1A78013B1B7843EA0223228892B24D
:401640009A4288BF2380FFF727FE012010BD00BF58C1FF1F6AC1FF1F66C1FF1F0760004008B50C4B04221A700B4B80221A70FFF7BFFF0A4B01201A78013B1B7843EA02224E
:40168000074B198889B2914288BF1A80054B0B221A7008BD6AC1FF1F66C1FF1F0760004058C1FF1F55C1FF1F094B1B78094B1A7B02F00302012A03D0DA7B82F08002DA7381
:4016C00001225A73044B1A7802F0FE021A7070470E60004070C1FF1F0B600040094B1B78094B1A7E02F00302012A03D0DA7E82F08002DA7601225A76044B1A7802F0FD0215
:401700001A7070471E60004070C1FF1F0B6000407047FFF7EBBC000008B50C4B18780138C0B200F04BF90A4B0A491B78DBB200EBC3004269CB5C02EBC3035B685A6A064B06
:401740001178C9B219805A6008BD00BF69C1FF1F0460004056C1FF1F58C1FF1F08B50D4B18780138C0B200F029F90B4B0B491B78DBB200EBC3004269CB5C02EBC3035B6814
:40178000DB69597813F8022B42EA0121044A1180536008BD69C1FF1F0460004056C1FF1F58C1FF1F10B5194C00232380184B18780138C0B200F002F9164B174A1B78127887
:4017C000DBB2D2B200EBC2004169EAB9134A127801EBC20251685A1E022A15D8104A03F10053013B127801EBC30011F83330D2B2934209D30C235A4341688B1858688A5A8A
:401800009B6860602280A36010BD00BF58C1FF1F69C1FF1F036000400460004056C1FF1F0260004010B53C4B3C4A1B781178DBB2090634D501321278013A052A6AD8DFE854
:4018400002F0101827696903354B1A78212A02D1FFF762FF07E01B78222B5BD1FFF77EFF01E0FFF79FFF2F4B1B889BB2002B51D00AE0002B4ED12C4B1B78002B4AD1294B42
:4018800001221A80294A5A60BDE81040FFF7C0BE002B3FD1234B01221A80254AF3E71278120637D4234A1278D2B20A2A0DD00B2A27D0092A2ED1FFF775FF1A4B1B889BB2D0
:4018C00043B3BDE81040FFF7CBBE1BBB164B1B7803F0FF01F3B9124B144A1B78DBB21370154B14781878844201D2197005E01978012902D91278D2B21A70BDE81040FFF71B
:4019000067BD3BB9084B1A78012A03D81A78084BD2B2F1E7002010BD04600040006000400360004058C1FF1F02600040E2C1FF1FE4C1FF1F01600040E3C1FF1F30B51C4B83
:4019400001211C4A0C2000FB012483F87200657925B12479240658BF082000E0802018700C2000FB012210890131C0F3072003F8020C10890929C0B203F8010CD08803F15B
:401980001003C0B283F86800D088C0F3072083F86900D088C0B283F86600D288C2F3072283F86720CDD1044BFF221A7030BD00BF0E60004070C1FF1F0A600040074B1A78F5
:4019C000074B03EBC2035B6803F108021B7A834286BF02EBC00040680020704764C1FF1FB8210000F8B5394B1A78002A6CD018780138C0B2FFF7E2FFC368047A083303EB2D
:401A0000C404A34260D013F8082C314931488D5C805C854256D0895C13F8070C884251D12D4909788A424DD113F8060C13F8056C00F07F02511E10F0800F28484FEA011152
:401A40004FF00C05C9B206F0030605FB020506D00127BE426F7014BF0D26072605E00027012E6F7014BF092605266E711C4D01266E540C25554333F8046C4219168113F8AC
:401A8000066C167113F8056C46550020D07015891448C5F30725455415890130EDB24554D5887930EDB24554D5880130C5F307254554D5880338EDB24554D2880130C2F3DF
:401AC0000722425408339CE7F8BD00BF69C1FF1F56C1FF1FDCC1FF1F0460004070C1FF1F0E6000400C60004008B5064B18780138C0B2FFF763FF20B143681B7900EBC30011
:401B0000406908BD69C1FF1FF8B500210C254D434C4C0131002362190929635593705370D370537113819372F0D118B1464A1370464A1370464B1A78002A00F0818018782A
:401B40000138C0B2FFF73AFF4368017ADB79C90013F0400F3F4B1A7814BF42F0010202F0FE021A700122C368083303EB010E73453DD013F8065C05F07F06B24235D10C26F8
:401B800006FB0246B6F808C033F8047C1FFA8CFCBC4538BF378113F8086C2B4FBE5D13F8077CB74221D113F8056C15F0800F4FF00C0506F0030605FB024506D00127BE4239
:401BC0006F7014BF0D26072605E00027012E6F7014BF092605266E710C25554313F8067C6619377113F8056C66550833BFE70132092AB8D1C36803F10802114408338B42A3
:401C00000AD013F8062C0C2502F07F0205FB024213F8080C9072F1E7FFF766FF0E4B0022186001230C2101FB0341CA80098901330A44092B92B2F5D1BDE8F840FFF77EBE22
:401C4000F8BD00BF70C1FF1F56C1FF1FDCC1FF1F69C1FF1F67C1FF1F6CC1FF1F114B197801F07F014A1ED2B2072A19D80E4B0C2000FB01339978120141F001019970002137
:401C8000D9705978D2B241F0020159701B7913F0800F064B14BF8D218921D154FFF798BB002070470460004070C1FF1F0E60004010B51A4B1B7803F07F035A1ED2B2072AA2
:401CC00029D817490C2000FB03139978120101F0FE0199700021D9701249D2B2545C04F07F045454597801F0FD01597019795B7811F0800F0C4905D0012B01D1505406E0E1
:401D00000D2303E0012B0CBF082309235354BDE81040FFF75DBB002010BD00BF0460004070C1FF1F0C6000400E60004010B50D4B1C780D4BE4B218780138C0B2FFF73EFE93
:401D400043681B79A3420BD954B9084B084A19780120C9B21170074A1278D2B21A7010BD002010BD0460004069C1FF1F56C1FF1FDCC1FF1F0260004038B58C4C002323804F
:401D80008B4B1A7812F0800F8A4A127800F088800A2A00F20881DFE812F05800060106010601060106010B000601780006017C00814B1A78012A09D1804B1A78804B03EB5B
:401DC000C2035B685B686360122311E01A78022A13D17C4B1878FFF7F1FD002800F0E380436863606368DA7863689B7843EA02232380BDE83840FFF70BBC1B78032B20D16D
:401E0000714B00226F49D0B20D7885420AD80A787AB16C4A6D481178007C6D4A884208BF134606E0187801320028F0D019780B44E8E71A78002A00F0B6801A78D2B22280C4
:401E400019E0BDE8384000F0E7B81A7812F0030213D0022A40F0A7805E4B22801B785E4A03F07F030C2101FB03239A785B4BD2B21A7000225A706360BBE702232380584BF2
:401E80001978564BC9B21970F4E701232380554BF1E7012323804F4B534A1B781344EAE7013A0A2A7FD8DFE802F0367E527E067E7E7E0B7E2200434B1A784C4BD2B260E070
:401EC000404B1B7803F0FF0453B9464B1A78944265D01C70464B01201870FFF715FE5EE0601EC0B2FFF76AFD0028EED15BE0FFF71DFF002857D0374B01221C783D4BE4B260
:401F00001C703B4B1A70FFF76DFD374B1A5D3A4BD2B21A5543E01B7803F00303012B32D00CD3022B3FD103F1804303F5C0431B78002B38D1BDE83840FFF7BABE214B1B7838
:401F4000012B30D1264B1A7802F0FD0219E01B7803F00303012B16D00BD3022B23D103F1804303F5C0431B78EBB9BDE83840FFF775BE144B1B78012B15D1194B1A7842F04F
:401F800002021A700BE0134B1A7862B91B781B4A0C48DBB2D15C007821EA0001D154BDE83840FFF715BA002038BD00BF58C1FF1F00600040016000400360004064C1FF1FDA
:401FC000B8210000026000407E220000FA220000742200000460004070C1FF1F4EC1FF1F67C1FF1F69C1FF1F56C1FF1F54C1FF1F68C1FF1F65C1FF1FDCC1FF1F6BC1FF1F6E
:40200000034B00201B781B0644BF024B1B7870470060004001600040104B1B7803F00303012B0CD0022B0ED10D4B0E4A1B780C2103F07F0301FB032308339B7801E0084B1F
:402040001B78DBB200E00023074A1268D35C032B01D1FFF7E7BB0020704700BF006000400460004070C1FF1F6CC1FF1F70B50E4B0E4D0024ED1AAD101E46AC4204D056F802
:40208000242090470134F8E700F040F9084D094B0024ED1AAD101E46AC4204D056F8242090470134F8E770BD1823000018230000202300001823000010B50023934203D0E3
:4020C000CC5CC4540133F9E710BD02440346934202D003F8011BFAE770470000602300000500000000000000105100401000C0510040100000000140001000140140000892
:4021000000400140000A004C01400002005001402000000001450040025200400117014001190140034001400241014002420140024301400347014003480140024C01404D
:40214000015101407E021C3E7C40EE0AEE0A33803640CC30A640A780A640A780A640A78008080F40C20CAE40AF80EE50AC08AF40000A020000CECC000000000000000030F9
:4021800030000000C00000CCCC0000000000003E00000000000000303000000000000003030000000000003333000000000000006930132E001E010101000000C0210000B1
:4021C00001000000FA22000001000000D021000001000000D122000002000000F2210000010000000422000000000000F02100000300000001034000030000008203400080
:4022000003000000010000000C220000000000004022000000000000342200000000000000000000010000004C22000001000000E3220000410000002BC2FF1F6CC2FF1FA7
:4022400041000000EAC1FF1FE6C1FF1F240005010900A1000900A1000900150025FF7508954091020900150025FF750895408102C0C000000A03300030003000310004037E
:4022800009042C0343007900700072006500730073002000530065006D00690063006F006E0064007500630074006F0072002203500053006F0043003300200042006F00FC
:4022C0006F0074006C006F006100640065007200000902290001010080000904000002030000020921110100012224000705010340000107058203400001120100020000FF
:402300000008B4041DB7023001028001F8B500BFF8BC08BC9E46704751000000B1010000F8B500BFF8BC08BC9E4670472D0000004023000008C1FF1F200000004801000072
:4023400000000000DC200000E02000000000007D00FA0000400000000090D00300000000000000000000000000000000000000000000000000000000000000000000000047
:40238000000000000000000000000000000000000000000000000000000000000000000000000000000000000000000000000000000000000000000000000000000000001D
:4023C00000000000000000000000000000000000000000000000000000000000000000000000000000000000000000000000000000000000000000000000000000000000DD
:40240000000000000000000000000000000000000000000000000000000000000000000000000000000000000000000000000000000000000000000000000000000000009C
:40244000000000000000000000000000000000000000000000000000000000000000000000000000000000000000000000000000000000000000000000000000000000005C
:020000040001F9
:40FFC00000000000000000000000000000000000000000000100010000000000000000000000000000000000000000000000000000000000000000000000000000000000FF
:0200000480007A
:4000000000000000000000000000000000000000000000000000000000000000000000000000000000000000000000000000000000000000000000000000000000000000C0
:400040000000000000000000000000000000000000000000000000000000000000000000000000000000000000000000000000000000000000000000000000000000000080
:400080000000000000000000000000000000000000000000000000000000000000000000000000000000000000000000000000000000000000000000000000000000000040
:4000C0000000000000000000000000000000000000000000000000000000000000000000000000000000000000000000000000000000000000000000000000000000000000
:0200000490006A
:040000008000400537
:0200000490105A
:04000000BC90ACAF55
:0200000490303A
:020000000602F6
:0200000490402A
:4000000000000000000000000000000000000000000000000000000000000000000000000000000000000000000000000000000000000000000000000000000000000000C0
:400040000000000000000000000000000000000000000000000000000000000000000000000000000000000000000000000000000000000000000000000000000000000080
:0200000490501A
:0C00000000012E13306900012E20366B29
:00000001FF