:400000000040002011000000590100005901000008B5054B1A6803F53F5302331A6000F051FA00F09BF800BFFA46004010B5054C237833B9044B13B10448AFF30080012394
:40004000237010BD28C1FF1F00000000E420000008B5064B1BB106480649AFF300800648036813B1054B03B1984708BD00000000E42000002CC1FF1F08C1FF1F0000000061
:4000800008B5344B1A782F3302F0FE0203F82F2C93F84B2002F0FE0283F84B201A7802F0FE021A7013F8012C02F0FE0203F8012C13F80C2C02F0FE0203F80C2C13F82A2CD1
:4000C00002F0FE0203F82A2C13F82E2C02F0FE0203F82E2C13F80D2C02F0FE0203F80D2C13F82B2C02F0FE0203F82B2C13F8082C02F0FE0203F8082C093B1A7802F0FE02D9
:400100001A705A7B02F0FE025A731A7B02F0FE021A7313F8112C02F0FE0203F8112C13F8122C02F0FE0203F8122C13F8152C02F0FE0203F8152C13F8162C02F0FE0203F8F3
:40014000162C93F8552002F0FE0283F8552000F0F1FBFEE702500040FEE7000008B51249124B4A1C1AD053F8106C53F80C0C53F8085C0022AA4200EB020403D0B4588450D3
:400180000432F7E753F8040C0022824203D00025A5500432F9E710330139E2E701F066FFFFF76EFFFEE700BF000000004023000008B5114A114B1A609A6842F400729A604F
:4001C0000023032B98BF0E4A4FEA830094BF52F823100C490C4A0133302B1150F1D10B4B19780B4B19700B4B1A6000F017F80A4B00221A6008BD00BF0004FA050CED00E030
:40020000000000005901000000C0FF1FBC76004004C1FF1F08ED00E000C1FF1FF8B572B6634B01221A700622A3F5A0631A705222A3F580731A705F4B19251A785E4BD2B2D0
:400240001A7040F61802A3F27F431A8041F2512223F8022C0024594B4FF4F0701B7803F0010343EA440400F09BFB013D04F0030418D0032CEFD1524B4FF480721A8007222F
:400280001A70504A002448211470917002221C705C7103F8032C93F8E42642F0040283F8E42600E0FEE7484B0021234418689A88063401F00AFF2A2CF5D100231946434C2C
:4002C00000221859303420F0FF06C0B2450004EB4104AA4208D004EB020CA75C9CF801C0023207F806C0F4E70433302B0144E6D1374B384C1A7842F002021A701A7C42F06C
:4003000002021A74344A137843F040031370334B197841F010011970314B186859681D4603C4198955F80A0F21806968E83403C429891846218050F8141FA4F64864C4F8DD
:40034000721D41681846C4F8761D50F81C1FC4F8821D41681846C4F8861D50F8241FC4F8921D41681846C4F8961D50F82C1FC4F8A21D41681B48C4F8A61D53F8341F016050
:400380005968194B4160197841F008011970174B17491B78DBB203F007001B0908704B70144B442119700FCA07C42380F8BD00BF004800400F010049A14600402542004039
:4003C0000440004006400040E8200000142100000350014000510040A0430040C2430040722100006251004022430040CF0100496E58004076580040004710B500232AB1C7
:40040000013A4418A45C2344DBB2F8E7184610BD0138092842D8DFE800F0050B11171D232F29353B0902C1F5FF3101F5E0713BE00902C1F5FF3101F2C11138E00902C1F5CA
:40044000FF3101F2C5112AE00902C1F5FF3101F2C9112CE00902C1F5FF3101F5E87123E00902C1F5FF3101F2D1111DE00902C1F5FF3101F5EB7112E00902C1F5FF3101F58D
:40048000E9710CE00902C1F5FF3101F5EA7106E00902C1F5FF3101F5EC7108E000210B78487843EA002070470878C0B270470B784A788878000440EA02201843CB7840EA34
:4004C0000360704710B50B4B1A7802F0C002802A0ED100241C7002202146FFF799FF38B121460220FFF794FFBDE81040FFF784BF10BD00BFFA460040F8B505462946032072
:40050000FFF786FF294607460420FFF781FF013700EB072729460320FFF77AFF0024013000022646B84209D210F8013B5A1ED2B2FD2A1C4498BF0126E4B2F3E703202946B9
:40054000FFF766FF114A013097424FEA00234FEAD30314BFFF084FF48047BB4206D203F19042127801331444E4B2F6E701202946FFF74EFF6442E4B2844204D1002E14BF9D
:4005800000200620F8BD0620F8BD00BFC0FF01002DE9F04FADF51B7D804600F015FA10B1002000F0E1FA00F03BFC62B600264FF00A093546B8F1000F14BF4346FF2304A8D2
:4005C0004FF4967101AA00F05BFCB8F1000F03D009F1FF395FFA89F9B9F1000F02D00028E8D101E0002878D1BDF80420062A40F289819DF81030012B40F084819DF8123017
:400600009DF8134043EA0424E71D04AB234497425879197900F274819B79172B40F07281231D9BB200223BB10DF10F07FF5C013B3A4492B29BB2F6E7524241EA002392B26F
:40064000934240F0618151E0002E00F05B81012C40F05881012F00F25581B24B1B681B68C3F30742974273D1C3F307238DF814301B0A8DF815300024FF238DF816308DF8ED
:400680001740042101238DF8103000220B1DADF806108DF811408DF812108DF813209BB20DF10F00C05C013B02449BB292B2002BF6D1524292B205AB5A54120A0DF11503B8
:4006C0005A5417220DF116035A54073104A889B20DF10602962300F0B2FBB8F1000F3FF469AF002E00F01981012663E79DF811209DF81470A2F131030A2B00F2FE8001A1BA
:4007000051F823F03107000049060000FB0800005B0700000B080000FB080000110800002F0800005B0700004B080000D9080000002E00F0E780002C40F0E4802046FFF7D4
:40074000DBFED0F1010038BF00208DF81400C1E08CBF00234FF4807388E7342A12D1002E00F0D080032C40F0CD80A7F140033F2B8CBF4FF4907510254FA800212A4601F099
:40078000A4FC05E0002E00F0BD80022C40F2BA80033C4FA828440DF11701224601F08CFCA7F1400325443F2BADB203D800F0B6F9102301E04FF490739D4240F097809DF88A
:4007C00016109DF815303F2F43EA01210FD8554B01EB07221B6892B21B68C3F30F2013F0FF0F1CBF013080B28242C0F082802B464FAA384600F030F900280CBF00240A2466
:40080000012600F0D7F9002578E0002E7AD07DE0002E77D02F19B7F5967F71D84FA82844224605A901F048FCBDB2002466E0002C68D13D4A02AB92E8030005AA83E80300FE
:4008400082E80300012608211CE7002E5AD0032C58D19DF815309DF816A043EA0A2AA7F140033F2B07D831484FEA0A111022FFF7C4FD04462AE04FEA072B0AEB0B010020C8
:4008800009024FF48072FFF7B8FD3F2F04461DD80BF1107BD3444FEA4B1B002313F80B2001331444202BE4B2F8D1012F0ED1BAF1FF0F0BD100210520FFF7AAFD201AC4B29D
:4008C00000210620FFF7A4FD201AC4B264428DF8144000240121D5E60020FFF70DFE10B9134B80221A7000F041F90BE00126002506E0012600250A2400E005240021C1E6E4
:400900000324FBE70424F9E70824F7E7B8F1000F01D145464EE60025E6E60DF51B7DBDE8F08F00BF0CC1FF1FB021000000800040FA46004070B50020FFF7DEFD154D002849
:400940002B684FF000001C68014622460CBF00260626FFF752FD6B681B78181A00F0FF00984200D114B9002000F0FEF80A4C237803F0C003402B00D01EB100202070FFF7B4
:4009800007FE1420FFF704FE80232370BDE8704000F0ECB80CC1FF1FFA460040000000000230800800F0058000BF013800467FF4FCAF7047EFF3108072B6704780F31088DE
:4009C000704700BFAFF3008038B500F02DF900F0D9F9002838D100F00FFA072804460FD11B4B1A78900703D4012000F0DBF8F7E71A78910704D51B789B0814BF0724002494
:400A000000F0E0F90CBB00F00FF900F0BBF9D8B9012000F09DF9072805D04FF0FF3410E02B789B07F9D40B48022100F00FF90228074DF5D12B789A0703D4012000F0B2F852
:400A4000F8E700F0BFF900E00424204638BD00BF2247004050C1FF1F4128F8B505460E4617461C460AD8C11E3C298CBF002101213F2804D8B6F5807F29D805E00121812E29
:400A800028BF0121102C22D10FB301BB00F07AF9F8B92346284631463A4600F0F1F80728044611D11B4B1A781F4612F0020F03D1012000F077F8F5E71A78900702D51B7837
:400AC0009B0808D04FF0FF3400F07CF91FE001241DE004241BE0104B28461A7831465B7800F016F907280446EED13A78094B910703D4012000F056F8F7E71A789207E1D5F1
:400B00001B789B080CBF00246FF00004DCE72046F8BD00BF2247004050C1FF1F08B5FFF749FF0F4B1A780C3342F0080203F80C2C1A7942F008021A71C82283F855231A785A
:400B400042F010021A701A7C42F010021A74054B1B789B06FBD5BDE80840FFF72FBF00BFA04300400047004001BE7047024B1A7842F001021A707047F646004010B504465B
:400B8000B4F5004F064B05D91868FFF709FFA4F50044F5E758686043BDE81040FFF700BF14C1FF1F024B1B7A5843FFF7F9BE00BF14C1FF1F08B5FFF7FDFE00BF00BF00BF10
:400BC00000BF00BF00BF00BF00BF00BF00BF00BF00BF00BF00BF00BF00BF064B1A8892B242F004021A801B88BFF36F8FBDE80840FFF7E4BE00480040054B00F01F001B68F7
:400C000000F1100253F8220043F82210704700BF08ED00E000F01F0000F16040490100F56440C9B20170704708B5FFF7C3FE064B1A7842F008021A701A7C42F008021A74E9
:400C4000BDE80840FFF7BABEA043004070B506460D460024E3B2AB420CD2074B1B78DB0703D40120FFF79EFFF7E7044B1B7833550134EFE7284670BD22470040204700401E
:400C8000F0B5214D2C78A40739D5204CB6262670D5262670022626702E7806F0020606F0FF0576BB202B207001D000250CE03F28FBD801EB00273F02EE5D0135F6B2B5F5AA
:400CC000807F2670F8D1F0E7AEB29E4203D2565D01352670F8E7B3F5807F01D00720F0BD3F28FBD800F5103001EB0021490100235A5C0133D2B2202B2270F9D1EEE7042009
:400D0000F0BD0920F0BD00BF224700402047004070B50D4D2C78A60712D50C4CB6262670D8262670052626702D78AD070AD42070080AC9B22070217022702370072070BD5D
:400D4000042070BD092070BD22470040204700400A4A137899070CD5094BB6211970E12119700E2119701278920704D4187007207047042070470920704700BF22470040A1
:400D80002047004038B5FFF715FE0C4B197879B901250B4A1D7014682C400AD0146824F00104146000BF00BF00BF5D600C4600E00424FFF703FE204638BD00BF44C1FF1F21
:400DC0000400084010B5FFF7F5FD094B002259681A70012908D107490C6844F001040C6000BF00BF00BF5A60BDE81040FFF7E6BD44C1FF1F04000840074B1B789B0708D575
:400E0000064BB6221A70E0221A700D221A70072070470420704700BF224700402047004008B562B60020022100F04EF9014B01221A7008BD4CC1FF1F012000F0F1B9F8B552
:400E400007460E46154603EB83030220394640225C0000F0A7F9022000F086F930B92CB10120013CFFF78AFEA4B2F4E7022000F07BF910B12E800020F8BD1020F8BD000000
:400E80002DE9F84303EB83035C00234B16461A7880460F469946AAB1254600F053F930B92DB10120013DFFF769FEADB2F5E700F049F9A8B100F04CF9FFF7BEFF002389F8E4
:400EC00000300DE000F044F950B100F03BF938B1FFF7B2FF04E054B1FFF750FE013CA4B2012000F041F901284FF00100F3D100F03BF901280AD14146402F34BF3A464022C8
:400F000000F0A4F930800020BDE8F883002333801020BDE8F88300BF4CC1FF1FF8B5FFF749FD394B01251A78022642F001021A701A7C364C42F001021A7403F5E7531833C0
:400F40001D7003F8946C13F88D2C074602F07F0203F88D2C0020FFF725FE2378284603F0F90323702A4B1A7802F0DF021A7023782B432370FFF716FE2820FFF713FE254B24
:400F800030461A7802F07F021A701A7802F0BF021A70237833432370FFF704FE2378384643F0040323701C4B00241C705C70FFF705FD1A491720FFF71FFE17200721FFF7FE
:400FC00029FE17491520FFF717FE15200721FFF721FE14491820FFF70FFE18200721FFF719FE20461049FFF707FE20460721FFF711FE28460D49FFF7FFFD28460721BDE875
:40100000F840FFF707BE00BFA54300409443004012600040F851004084600040131700001117000065150000A9160000DD160000184B012210B51A70174B4FF400041C60E8
:401040004FF080741C601A6002221A60134B00241C70134B01B103221A70124B124A187000231370114A01201370114A1370114A1370114A1370114A1370114B03221A7073
:40108000802203F8202CFFF78BFC0E4B04221A7010BD00BFE4C1FF1F00E100E06AC1FF1F0960004064C1FF1F69C1FF1F65C1FF1F68C1FF1F54C1FF1F67C1FF1FDDC1FF1F74
:4010C000286000401260004070B5074C064623780D461BB9FFF722FF0123237030462946BDE87040FFF7A4BF4DC1FF1F0C4B01221A700C4A002313700B4A13700B4A1370B3
:401100000B4A13700B4A13700B4A13700B4A13700B4B03221A70802203F8202C704700BFE4C1FF1F6AC1FF1F69C1FF1F65C1FF1F68C1FF1F54C1FF1F67C1FF1FDDC1FF1FD7
:4011400028600040014B1878704700BF69C1FF1F044B1A7802F0FF001AB118780022C0B21A70704768C1FF1F024B0C2202FB00304078704770C1FF1F0138C3B2072B0CD89A
:40118000074A1B01DBB2985C01329B5C00F00F0043EA0020023880B270470020704700BF0C600040431EDBB2072BF0B52FD8184E0C2404FB0064E7881B01BFB2154DC7F587
:4011C0000077DBB2BA421D4403D9E288C2F5007292B20C2404FB0064E7780F4C47EA12271F55D7B201341F5549B90C2202FB0060002242704179094AC9B29954F0BD0024D7
:40120000A7B29742F1D20F5D01342F70F8E7F0BD70C1FF1F886000400C6000400E600040431EDBB2072B0BD8064A0C2101FB00200022427041791B01034ADBB2C9B2995494
:40124000704700BF70C1FF1F0E600040F8B5431EDBB2072B07460D46144616D8B9B11B010C4EDBB21E44FFF787FFA04228BF204684B200239AB2A24203D23278EA54013352
:40128000F8E73846FFF7CCFF02E0002400E00C462046F8BD8860004030B51A4B1A481A8801780A4492B219491A80194BCAB21C88A4B284B1174A91420CD05A681278D2B251
:4012C00001F8012B5A6801325A601A88013A92B21A80EAE7082203780F4C082B0F4B00D042B10F490D7885F080050D700F212170022101E00221217019700A4B02701A7097
:4013000030BD00BFE0C1FF1FDDC1FF1F0060004058C1FF1F0860004055C1FF1F6AC1FF1F66C1FF1FDEC1FF1F074B02221A70074B80221A70064B0F221A70064A0023137008
:40134000054A0120137070476AC1FF1F66C1FF1F55C1FF1FDDC1FF1FDEC1FF1F10B5154B1A78154B02F00F021988023AD2B2114489B219801149124B188880B278B172B10F
:40138000586811F8014B013AE4B204705868D2B2013058601888013880B21880EBE7094B1A70094B1A7882F080021A70074B0B221A7010BD29600040E0C1FF1F00600040F1
:4013C00058C1FF1FDEC1FF1F66C1FF1F55C1FF1F064A06231370064A01201370054B80221A70054B00221A70704700BF6AC1FF1F55C1FF1F66C1FF1FDEC1FF1F054B9A68D1
:401400003AB19A68044910709A680988518000229A60704758C1FF1FE0C1FF1F08B5124B1A78D2B21A701B78DBB21A0602D50F4A137008BD0220FFF7E1FF0D4B1B7803F07D
:401440006003202B05D0402B06D043B900F094FC04E000F0E1FD01E000F0D2FD10B9034B03221A7008BD00BF2860004055C1FF1F0060004008B50849084B01201A8809784F
:401480000A4492B21A80064B00221A70FFF7B6FF044B03221A7008BDDDC1FF1FE0C1FF1F6AC1FF1F55C1FF1F08B50C4B1B78DBB2042B07D0062B09D0022B0DD1BDE8084061
:4014C000FFF7D8BFBDE80840FFF748BF0320FFF795FF034B03221A7008BD00BF6AC1FF1F55C1FF1F08B5054B002201201A70FFF785FF034B03221A7008BD00BF6AC1FF1FAC
:4015000055C1FF1F08B50A4B1A7832B11978094A41F08001117000221A70074B002201201A70FFF76BFF054B03221A7008BD00BF54C1FF1F086000406AC1FF1F55C1FF1FD3
:40154000074B1B78DBB2042B05D0062B05D0022B05D1FFF7A1BEFFF7C5BFFFF7D3BF70476AC1FF1F10B51D4C2378DBB2DA0633D518060AD503F00F03012B2DD1FFF74EFFE8
:40158000174B1B78190609D510BD5A0602D5FFF7D7FF03E09B061FD5FFF786FF23781B061AD4104B104A1B78127813430F4A13701278934210D10A4B08491A782078D2B234
:4015C000000605D41A78D2B20A700A7802F00F021B789A42EFD110BD10BD00BF2860004055C1FF1F66C1FF1FDEC1FF1F29600040054A00231380054A916819B191680B701D
:4016000092685380704700BFE0C1FF1F58C1FF1F10B50F4C23889BB213B9FFF785FE14E00C4B02221A700C4B00221A70FFF7E0FF0A4B1A78013B1B7843EA0223228892B24D
:401640009A4288BF2380FFF727FE012010BD00BF58C1FF1F6AC1FF1F66C1FF1F0760004008B50C4B04221A700B4B80221A70FFF7BFFF0A4B01201A78013B1B7843EA02224E
:40168000074B198889B2914288BF1A80054B0B221A7008BD6AC1FF1F66C1FF1F0760004058C1FF1F55C1FF1F094B1B78094B1A7B02F00302012A03D0DA7B82F08002DA7381
:4016C00001225A73044B1A7802F0FE021A7070470E60004070C1FF1F0B600040094B1B78094B1A7E02F00302012A03D0DA7E82F08002DA7601225A76044B1A7802F0FD0215
:401700001A7070471E60004070C1FF1F0B6000407047FFF7EBBC000008B50C4B18780138C0B200F04BF90A4B0A491B78DBB200EBC3004269CB5C02EBC3035B685A6A064B06
:401740001178C9B219805A6008BD00BF69C1FF1F0460004056C1FF1F58C1FF1F08B50D4B18780138C0B200F029F90B4B0B491B78DBB200EBC3004269CB5C02EBC3035B6814
:40178000DB69597813F8022B42EA0121044A1180536008BD69C1FF1F0460004056C1FF1F58C1FF1F10B5194C00232380184B18780138C0B200F002F9164B174A1B78127887
:4017C000DBB2D2B200EBC2004169EAB9134A127801EBC20251685A1E022A15D8104A03F10053013B127801EBC30011F83330D2B2934209D30C235A4341688B1858688A5A8A
:401800009B6860602280A36010BD00BF58C1FF1F69C1FF1F036000400460004056C1FF1F0260004010B53C4B3C4A1B781178DBB2090634D501321278013A052A6AD8DFE854
:4018400002F0101827696903354B1A78212A02D1FFF762FF07E01B78222B5BD1FFF77EFF01E0FFF79FFF2F4B1B889BB2002B51D00AE0002B4ED12C4B1B78002B4AD1294B42
:4018800001221A80294A5A60BDE81040FFF7C0BE002B3FD1234B01221A80254AF3E71278120637D4234A1278D2B20A2A0DD00B2A27D0092A2ED1FFF775FF1A4B1B889BB2D0
:4018C00043B3BDE81040FFF7CBBE1BBB164B1B7803F0FF01F3B9124B144A1B78DBB21370154B14781878844201D2197005E01978012902D91278D2B21A70BDE81040FFF71B
:4019000067BD3BB9084B1A78012A03D81A78084BD2B2F1E7002010BD04600040006000400360004058C1FF1F02600040E2C1FF1FE4C1FF1F01600040E3C1FF1F30B51C4B83
:4019400001211C4A0C2000FB012483F87200657925B12479240658BF082000E0802018700C2000FB012210890131C0F3072003F8020C10890929C0B203F8010CD08803F15B
:401980001003C0B283F86800D088C0F3072083F86900D088C0B283F86600D288C2F3072283F86720CDD1044BFF221A7030BD00BF0E60004070C1FF1F0A600040074B1A78F5
:4019C000074B03EBC2035B6803F108021B7A834286BF02EBC00040680020704764C1FF1FB8210000F8B5394B1A78002A6CD018780138C0B2FFF7E2FFC368047A083303EB2D
:401A0000C404A34260D013F8082C314931488D5C805C854256D0895C13F8070C884251D12D4909788A424DD113F8060C13F8056C00F07F02511E10F0800F28484FEA011152
:401A40004FF00C05C9B206F0030605FB020506D00127BE426F7014BF0D26072605E00027012E6F7014BF092605266E711C4D01266E540C25554333F8046C4219168113F8AC
:401A8000066C167113F8056C46550020D07015891448C5F30725455415890130EDB24554D5887930EDB24554D5880130C5F307254554D5880338EDB24554D2880130C2F3DF
:401AC0000722425408339CE7F8BD00BF69C1FF1F56C1FF1FDCC1FF1F0460004070C1FF1F0E6000400C60004008B5064B18780138C0B2FFF763FF20B143681B7900EBC30011
:401B0000406908BD69C1FF1FF8B500210C254D434C4C0131002362190929635593705370D370537113819372F0D118B1464A1370464A1370464B1A78002A00F0818018782A
:401B40000138C0B2FFF73AFF4368017ADB79C90013F0400F3F4B1A7814BF42F0010202F0FE021A700122C368083303EB010E73453DD013F8065C05F07F06B24235D10C26F8
:401B800006FB0246B6F808C033F8047C1FFA8CFCBC4538BF378113F8086C2B4FBE5D13F8077CB74221D113F8056C15F0800F4FF00C0506F0030605FB024506D00127BE4239
:401BC0006F7014BF0D26072605E00027012E6F7014BF092605266E710C25554313F8067C6619377113F8056C66550833BFE70132092AB8D1C36803F10802114408338B42A3
:401C00000AD013F8062C0C2502F07F0205FB024213F8080C9072F1E7FFF766FF0E4B0022186001230C2101FB0341CA80098901330A44092B92B2F5D1BDE8F840FFF77EBE22
:401C4000F8BD00BF70C1FF1F56C1FF1FDCC1FF1F69C1FF1F67C1FF1F6CC1FF1F114B197801F07F014A1ED2B2072A19D80E4B0C2000FB01339978120141F001019970002137
:401C8000D9705978D2B241F0020159701B7913F0800F064B14BF8D218921D154FFF798BB002070470460004070C1FF1F0E60004010B51A4B1B7803F07F035A1ED2B2072AA2
:401CC00029D817490C2000FB03139978120101F0FE0199700021D9701249D2B2545C04F07F045454597801F0FD01597019795B7811F0800F0C4905D0012B01D1505406E0E1
:401D00000D2303E0012B0CBF082309235354BDE81040FFF75DBB002010BD00BF0460004070C1FF1F0C6000400E60004010B50D4B1C780D4BE4B218780138C0B2FFF73EFE93
:401D400043681B79A3420BD954B9084B084A19780120C9B21170074A1278D2B21A7010BD002010BD0460004069C1FF1F56C1FF1FDCC1FF1F0260004038B58C4C002323804F
:401D80008B4B1A7812F0800F8A4A127800F088800A2A00F20881DFE812F05800060106010601060106010B000601780006017C00814B1A78012A09D1804B1A78804B03EB5B
:401DC000C2035B685B686360122311E01A78022A13D17C4B1878FFF7F1FD002800F0E380436863606368DA7863689B7843EA02232380BDE83840FFF70BBC1B78032B20D16D
:401E0000714B00226F49D0B20D7885420AD80A787AB16C4A6D481178007C6D4A884208BF134606E0187801320028F0D019780B44E8E71A78002A00F0B6801A78D2B22280C4
:401E400019E0BDE8384000F0E7B81A7812F0030213D0022A40F0A7805E4B22801B785E4A03F07F030C2101FB03239A785B4BD2B21A7000225A706360BBE702232380584BF2
:401E80001978564BC9B21970F4E701232380554BF1E7012323804F4B534A1B781344EAE7013A0A2A7FD8DFE802F0367E527E067E7E7E0B7E2200434B1A784C4BD2B260E070
:401EC000404B1B7803F0FF0453B9464B1A78944265D01C70464B01201870FFF715FE5EE0601EC0B2FFF76AFD0028EED15BE0FFF71DFF002857D0374B01221C783D4BE4B260
:401F00001C703B4B1A70FFF76DFD374B1A5D3A4BD2B21A5543E01B7803F00303012B32D00CD3022B3FD103F1804303F5C0431B78002B38D1BDE83840FFF7BABE214B1B7838
:401F4000012B30D1264B1A7802F0FD0219E01B7803F00303012B16D00BD3022B23D103F1804303F5C0431B78EBB9BDE83840FFF775BE144B1B78012B15D1194B1A7842F04F
:401F800002021A700BE0134B1A7862B91B781B4A0C48DBB2D15C007821EA0001D154BDE83840FFF715BA002038BD00BF58C1FF1F00600040016000400360004064C1FF1FDA
:401FC000B8210000026000407E220000FA220000742200000460004070C1FF1F4EC1FF1F67C1FF1F69C1FF1F56C1FF1F54C1FF1F68C1FF1F65C1FF1FDCC1FF1F6BC1FF1F6E
:40200000034B00201B781B0644BF024B1B7870470060004001600040104B1B7803F00303012B0CD0022B0ED10D4B0E4A1B780C2103F07F0301FB032308339B7801E0084B1F
:402040001B78DBB200E00023074A1268D35C032B01D1FFF7E7BB0020704700BF006000400460004070C1FF1F6CC1FF1F70B50E4B0E4D0024ED1AAD101E46AC4204D056F802
:40208000242090470134F8E700F040F9084D094B0024ED1AAD101E46AC4204D056F8242090470134F8E770BD1823000018230000202300001823000010B50023934203D0E3
:4020C000CC5CC4540133F9E710BD02440346934202D003F8011BFAE770470000602300000500000000000000105100401000C0510040100000000140001000140140000892
:4021000000400140000A004C01400002005001402000000001450040025200400117014001190140034001400241014002420140024301400347014003480140024C01404D
:40214000015101407E021C3E7C40EE0AEE0A33803640CC30A640A780A640A780A640A78008080F40C20CAE40AF80EE50AC08AF40000A020000CECC000000000000000030F9
:4021800030000000C00000CCCC0000000000003E00000000000000303000000000000003030000000000003333000000000000006930132E001E010101000000C0210000B1
:4021C00001000000FA22000001000000D021000001000000D122000002000000F2210000010000000422000000000000F02100000300000001034000030000008203400080
:4022000003000000010000000C220000000000004022000000000000342200000000000000000000010000004C22000001000000E3220000410000002BC2FF1F6CC2FF1FA7
:4022400041000000EAC1FF1FE6C1FF1F240005010900A1000900A1000900150025FF7508954091020900150025FF750895408102C0C000000A03300030003000310004037E
:4022800009042C0343007900700072006500730073002000530065006D00690063006F006E0064007500630074006F0072002203500053006F0043003300200042006F00FC
:4022C0006F0074006C006F006100640065007200000902290001010080000904000002030000020921110100012224000705010340000107058203400001120100020000FF
:402300000008B4041DB7023001028001F8B500BFF8BC08BC9E46704751000000B1010000F8B500BFF8BC08BC9E4670472D0000004023000008C1FF1F200000004801000072
:4023400000000000DC200000E02000000000007D00FA0000400000000090D00300000000000000000000000000000000000000000000000000000000000000000000000047
:40238000000000000000000000000000000000000000000000000000000000000000000000000000000000000000000000000000000000000000000000000000000000001D
:4023C00000000000000000000000000000000000000000000000000000000000000000000000000000000000000000000000000000000000000000000000000000000000DD
:402400000040002011240000496600004966000008B504F021F9000010B5054C237833B9044B13B10448AFF300800123237010BD78C1FF1F0000000048890000084B10B5FC
:402440001BB108490848AFF300800848036803B910BD074B002BFBD0BDE81040184700BF000000007CC1FF1F48890000C8C0FF1F000000002DE9804896498DB00F2005F03E
:4024800001FF4CF24F32944BE0215A60934A042082F8231000229A6007221A6005F0DAFC012005F0CBFC012005F0E4FE05F0DEFC8B4B18B101221A600C2001E01860022004
:4024C00005F0C8FC03F0D2FA03F03CFF62B6854C2378FF2B26D1012141F6FF734FF48042084605F071FC804D012141F6FF724FF480432870084605F0DBFB2070287805F09E
:4025000009FD207805F006FD05F09CFD774B187005F098FD764B1870764805F071FC764805F0E2FB7548764C04F0A4F9754805F0A5FC94F868301B0705D5012005F0B0FC65
:40254000714B00221A700121002004F063FB6F4A002313606E4A13606E4A13606E4B6F4A13F8011F41B99342FAD105F0C9FD6C4ABC21012005F058FE614D4FF48072694934
:4025800005F1640006F096F90422674905F1640006F0CAF938B14FF4DE339B7885F86830FF2385F86A30614805F06AFB05F054FB0123C4F8683144F2931342F601160022A8
:4025C0004FF0FF30E2545A4BC4F86421C4F86C21C4F8740122664FF4DE31FF270D78183315F0800F1FBF05F0070503F82C5C8D8943F8281C01F5805112BF23F8245C03F84E
:402600002C7C43F8282CB1F5FE3F43F81C0C43F8180C23F81E6C03F8222C23F8202CDDD102F0A0FE434B0122434F1A60002594F869309D422ADAC826052005F005FE3B7883
:4026400001333B7003F064FA013EF5D10135EEE73A4B02221A700523AB724FF41053AB810623C4F87431264C03F052FAD4F87431591C41F04381324B1B68002B41F02281BB
:402680000A9803F0E7F9C82841F22B812D4B1B680A9303F0ABFB284A194C1378A34601331370D4F86831002B4ED1D4F8743104330B2B00F2FA86DFE813F02B01F806170198
:4026C000FF008906F8063702F6064706F806D806E70600BF6D58000010E000E000ED00E02CC2FF1FD9C0FF1FDCC0FF1FDAC0FF1FD8C0FF1FFD4A0000E54A0000F53D00004F
:4027000060C4FF1FE53D00002064004024C2FF1F30C2FF1FE0C1FF1FFFBB01003FBC0100BF89000000BB0100BF8A00007D58000074C4FF1F28C2FF1F04060020F805002020
:4027400034C2FF1FDCC1FF1FBC4ABD4F13780133137003F08BF9BB4A55233B701368002B33D000231360B84AB84E1360B84AB94D1360B94A04213078136005F027FC0421E2
:40278000287805F023FC25233B70B1462F46DFF8F48299F8000005F029FC420703D598F80030002BF5D0387805F020FC430703D5AA4B1B78002BF6D0012005F05BFD3078CB
:4027C00005F0A8FB287805F0A5FBA54EA54D337843F00303337004F067F82B78002043F001032B7004F002F89F4A137803F0FE03137012F84B3C03F0FE0302F84B3C12F8CF
:402800004C3C03F0FE0302F84C3C2B7803F0FE032B7012F8753C03F0FE0302F8753C12F8793C03F0FE0302F8793C2B7803F0FE032B7004F033F8337803F0FC03337005F026
:40284000F1FA002005F0BEF9884A0023C4F86831C4F87031C4F86431C4F86C319370236E4FF0FF31C4F87411117073B142F60112D98991421CBF42F60212DA814FF0FF32F5
:402880001A615A6100229A729A810025256602F069FD774B01201D6005F0D6FC05F0C8FA00F00800A84214BF2B460123C4F868317FF4FBAE00F0F9BD05F0BAFA870705D442
:4028C0006FF00103C4F8743100F0EFBD05F0B0FA460703D402F078FA00F0E7BDD4F86C31002BF7D100F0E1BD05F0A2FA4507F1D5D4F86C31002BEDD105F09AFA800740F19D
:40290000D4855C4B4FF0FF32C3F8742100F0CDBD94F86A00FF2805D1574B1B78012B04D8012000E008B105F08FFC94F8683003F0400303F0FF0205921BB14E4BD3F86C3141
:4029400033B905F075FA80F00400C0F3800901E04FF0010905F06CFA80F00200C0F34003DFF824A106939AF800300026DBB2079302F05EF8804605462DB105F001031E4494
:40298000C5F34705F8E73D4B13F8083008933C4B1B78DBB2099305F04BFA2A460746182101FB02F30BEB03051BF8033048FA03F313F0010303D10132042AF1D11D46059BED
:4029C00013B1D4F86C3133B905F032FA80F00400C0F3800000E0012009EA000905F028FA9AF800308107DBB240F19280069A002A40F08E80079AD20640F18A80DB0640F1FA
:402A00008780B9F1000F00F08680002D00F08780099A089982F01002C2F3001207F001079142F3B287F0010630D094F8682090072CD5002F41F0AD8171E000BF02060020C6
:402A40003806002098C1FF1FD0C1FF1FD9C0FF1FC8C1FF1FDCC0FF1FCCC1FF1F9DC1FF1F90640040255000407C500040F1050020FC05002060C4FF1FF3050020CA8B0000B8
:402A8000115000409CC1FF1F04500040022B46DCAD4A137843F00103137002F0F1FF2566C4F8646127B10023EB810122A74B0BE0A74B93F8683013F0040FA44B01D1012277
:402AC00002E01A780AB902221A70A24A1378013313702A780123934083EA08085FFA88F8002348FA03F2D10702D59B4A136006E00133082BF5D1984B4FF0FF321A60DBF8C0
:402B000068311BB905F094F94207F8D5022304E0B9F1000F03D16FF00103C4F874310023C4F86C3100F0C1BCD4F86451002D40F0BA84DFF85492022001F0DCFD844BC9F8F8
:402B40000050C9F80450C9F80850C3F8705101F037FF824B89F80000400909F10C05195CA5F10B0705F1010829703846013901F0D7FE98F9003099F80060002BBEBF3B7852
:402B80005B0988F8003098F90020002A18DD704B93F96830002B13DA0023182000FB03F10BEB010E1BF80110914206D1684BC3F860E0002388F8003002E00133042BEDD199
:402BC0002B78D4F868E15B4403F58343D878644B5F4A19784D1C1D70256EBEF1000F0AD019704FF0FF33C9F80030C9F80430C9F8083000F05ABCD2F8703163B192F86830E6
:402C00009B0708D5514B1B78012B04D90B23AB724FF48E4340E100F00300022807D10523AB724FF41053AB8102F034F96FE3122ED5F804E040F0E7804A4A3978967813787A
:402C4000002E08BF4FF48076C80721D4002B40F09D80454A454B1068516803C36A68D27884F87921724652F8120F51680EF11A0203C30EF12A0E1D4610685168083203C518
:402C800072452B46F7D11068394B242218603AE09EF80318E1B100210EEB010292F80378002F00F0338692F801280437934209D101F500613A4671442C4805F0FBFD2D4B11
:402CC0001F602FE03944B1F57F7FE5DB00F01EBE43B9294A254B10685168082203C303F580432FE0802B10D1244B204A03F11007154618685968083303C5BB422A46F7D18B
:402D00001868142228601B4B1CE0812B0CD11C49164B086818608888897998809971072342F8063C042339E0822B2FD1154A0F4B5168106803C31189927A19809A7003F504
:402D400080430B221A60EDE731500040F305002060C4FF1F01060020F40500205489000000060020E60500205C890000D8C5FF1FF8C5FF1FE0050020648900006C8900004A
:402D80008089000087890000E4050020022393740523AB724FF41053AB810623C4F87431D4F87421A74B042A24D103F583452A68B24206D202F5BC700021B21A184405F02F
:402DC0009FFD236E2E605B685B78013B042B11D8DFE803F00A030A070500052302E0012300E0072384F8783194F8793163F07F0384F8793198F90030002B00F088827F233B
:402E000084F8783183E2032E32D18F4F4FF480723E780021002E8D4808BF042605F070FDF02384F87831AB7A03F00F0384F87A31874B5B681A0E84F87B211A0C84F87C21F7
:402E400084F87E311A0A0A2384F87D2184F87F31AB891B0A84F88431AB8947F8086C84F885310423C4F874310023AB72AB814EE2EB8953B194F86820D10706D50622AB8136
:402E80000023AA72EB8100F07FBE98F9003033B10523AB724FF41453AB8100F075BEA6F11602012A38D83A786A4F02F0100102F0010C01F0FF0EC2F3420219B93B68296902
:402EC0008B4206E0396808466969814204D12B69934214BF00230123BCF1000F04D00523AB724FF41053D7E7172E296907D1002900DB3BB14FF0FF332B616B6107E2002990
:402F000002DB0BB918208FE63B68BEF1000F08BF1A466B612A61FAE12B69002B03DB4D4A12689342EED19EF80130022B40F0A080432E73D1484B3F785E7899781A7813F880
:402F4000043C07F0020701EB062603F00F03FFB2B6B2032B3FF67CABDFE803F002445258012A3FF675AB3D4B384A03F1100C9646186859680833AEE8030063457246F6D1F5
:402F80001868CEF800006B6829899A68586802F0EBFFBFB1002384F886314B23B0FBF3F103FB110384F889313C23B1FBF3F203FB121384F8883141F29413B0FBF3F084F871
:402FC00087010AE0030E84F88631030C84F88731030A84F8883184F88901132E88BF14261F4B0BE01F4A194B106851680B2E03C3906888BF0C26186003F580431E600EE16B
:40300000012A3FF625AB3146002004E0012A3FF61FAB3146012002F0EBFC78E1442E2ED1114D12492A786B78086803EB02239BB2064A4968072B88BF082303C245F80B3C84
:40304000EDE000BF60C4FF1FE8050020D8C5FF1FB4C1FF1FF4050020EA05002092890000E0050020A6890000EB050020B2890000042B04D106F07F032C2B00F048811B2E90
:403080001CD1A74BA74D1B7813F0010F2B6811D043F001022A605A0700F139819B0740F1368101F02FF8002800F031812B6843F0040301E023F001032B6028E116B902F0D1
:4030C00039FA24E102F036FA002800F02081082E10D1954A53781078917803EB00203B7800294FEA034303F4F81308BF4FF48071184414E0282E15D18C4B13F8042C13F85C
:40310000050C120402EB006213F8020C1D780244597813F8030C01EB052102EB002002F05BFAF4E00A2E10D17F4A53781078917803EB00203B7800294FEA034303F4F81357
:4031400008BF4FF48071184416E006F0FB032A2B15D1764B13F8042C13F8050C120402EB006213F8020C1D780244597813F8030C01EB052102EB002002F0C0FAC7E0042ED3
:403180000FD13A786A4BD70640F1C18003F5834216600022C3F87421664A674B1A6000F007BE252E4CD1604B5A7819781204DD7802EB0162216E2A449E799D784B6802EB41
:4031C000052506F001069A680989586802F0CCFE4EB945B1594B02221A70236E05229A724FF4105229E008B30138030E84F87831030C84F87931030A84F87A31236E84F837
:403200007B011B89002284F87C2184F87D2184F87F311A0A4A4B84F87E2108221A600423C4F87431236E1B89059346E1434B02221A70236E9A724FF468529A81FFF710BA48
:403240000B2E0AD1384B18785B7803EB00203B781B0403F4F81318440CE02B2E0DD1324A537810781B0403EB0063D0780344907803EB002002F094F949E0A6F13403022B6C
:4032800045D91E2E43D0012E41D02F2E11D13A78274B95073BD5294A022111701A6E052191724FF4105191810622C3F87421FFF7DAB9372E1E4D16D1204B02221A702B6E5A
:4032C00000229A724FF4E0529A8107E0152A40F04284134A1278002A40F047840623C5F87431FFF7C0B91C2E00F03C831D2E40F0AC83144B1A7801331B7803EB02233A78CE
:4033000002F0040202F0FF01002A00F08B83D4F87431022B40F0C980002001F0BBFDC4E0E805002028C2FF1FE6050020EB05002060C4FF1F015F0000FC050020F8050020E7
:40334000E0050020E705002004F072FDD4F8643100F0010080F001001843C4F86401002840F0A180A64FA74E3B68B3F5804F84BF4FF480433B603D683368ED1A1DD00420E1
:4033800001F0B8F93068A6F580480B2D4044294602D801F025FA0DE001F00CFA30BF9A4B22221A7001F0D2F920B9DBF868310BB930BFF7E733681D44356032683B689A4299
:4033C00073DB924BDA689B689A42A3E704F030FDD4F8643100F0010080F001001843C4F8640100285FD1864F864E3B680020B3F5804F84BF4FF480433B6039683368DFF865
:403400001482CD1AC4F870011FD001F073F9336808F5BC702946184401F082FA3168D8F870312944316083B198F8683099070CD5F37E012B09D9D8F860300B229A724FF45A
:403440008E429A81022001F025FD32683B689A422BDB6E4BDA689B689A4226D16C4B1B68002B3FF459AF98471FE004F0E1FCD4F8643100F0010080F001001843C4F86401AE
:4034800088B901F0CFFC10E004F0D2FCD4F8643100F0010080F001001843C4F8640110B901F03EFD01E001F07FFF236E1B890593D4F87431042B40F0BB80544DEA68AB68FB
:4034C0009A423FF4D0A8042001F014F9059B6A6803F2FF19AB684FEA692903FB09F30693236E05995B680027586802F04DFDBA463E46B8460790069BB34274DDDBF87431A6
:40350000042B70D1434BD3F86831002B6BD104F0E7FF414B1B782BB1404B1D78B5FA85F56D0900E001253E4B1B7823B13D4B1B780BB1002302E005B130BF0123089304F004
:40354000D3FF089B15B1002BE1D120E37FB1002B40F02283324B1B7843B1324B1B782BB1314B02221A6008F1010800E07FBBC6EB08031F2B2ADC069B434527DD234B08F03B
:403580001F001B6823B10BEB402000F5BC7019E0079B0BEB402008EB030100F5BC770120089101F057F8214B08995B6803B94902112000F077FF10F0FF0F02D002F000FCD8
:4035C00002E0384600F0AEFF012700E00027BAF1000F00F0E582002D8DD101F0B7F8002889D00136DCE2D4F87431042B03D1094B0622C3F8742101F0B5FEFFF734B800BF68
:40360000E0050020D805002038060020B4C1FF1FFC05002060C4FF1F9DC1FF1F9CC1FF1F94C1FF1F95C1FF1FE8C0FF1F0C060020002B7FF418A8B84CE268A3689A423FF498
:4036400012A8002001F056F8059B002703F2FF135B1208933E46A3683C46089A079703FB02F9AE4B09971D680697069BDFF8DC82994509DC099B002B00F0F080A84A137811
:4036800003F0FE031370E9E0D8F874311BB1099B002B00F0E380D8F86831002BEAD1DFF8BCA2DFF8A4B204F01BFF9E4B1B7833B19AF80080B8FA88F84FEA581801E04FF03B
:4036C00001089BF8003023B1974B1B780BB1002304E0B8F1000F00D030BF01230B9304F003FF0B9BB8F1000F02D0002BDBD10CE07FB1002B40F09B8000F080FE002800F0A4
:403700009680069B0133069303E04FF00108002FF2D1069BE31A002B40F36682069B834F03F01F0A824B03EB4A2A3B78FF2B4BD104F088FC387004F085FC787004F082FC5E
:40374000B87004F07FFCF87004F07CFC01233871FA780221B87804F08FFC07F1080146F2445289B2B87804F099FC01233A794FF40071F87804F080FC0423FE220A2138797C
:4037800004F07AFC6B4946F2445289B2387904F085FC00237A784FF40171387804F06CFC654A46F2545192B2387804F077FCFE2208210623787804F05FFC604A46F25451C7
:4037C00092B2787804F06AFCDFF860B15C4F1FFA8AF146F244529BF8030004F05FFCDFF880A1584A00230121387813600B9304F0EDFB9AF8000004F09FFB0B9B4A4A9BF8F8
:4038000000101370504A9AF80000137004F0D2FB9BF80210387804F0CDFB01219AF8000004F062FB3878012104F05EFB01273B4B079AD3F800A0DFF814B1002A00F07B82E3
:40384000B8F1000F40F0D281079301F01FF8079B002800F0CB81013455466CE242F21074D8F868315BB976B1284602F0F3F8A04206D801F0E7F9B0FA80F67609F0E716B1D2
:403880000123C8F86831D8F87421304B002A7FF4B2AED3F87021002A3FF4A9AE93F8682090077FF5A4AE2A4A1278012A7FF69FAE1B6E0B229A724FF48E429A81254B0222BF
:4038C0001A7094E6244B186802F0C4F8312802D9002000F0BFFED4F874315A1C0ED1FEF7CFBE04F0FDFD044604F0A2FA430700D530BF204604F0F8FDFEF7CDBE002BFEF61A
:40390000CAAE064B1B680A93FEF7C5BE114B02221A70FFF73DBA00BFB4C1FF1FDCC1FF1F315000409DC1FF1F95C1FF1FCCC0FF1FD8C5FF1FE4C0FF1FA8C1FF1FACC1FF1F38
:40394000E0C0FF1FE8C0FF1F94C1FF1F60C4FF1FF3050020F8050020D8C1FF1F9CC1FF1FDFC0FF1FB94A95F8783192F800A0567853B9B74B052218681B79C5F8780185F8BD
:403980007C3105F583432EE0402B2FD12B6E95F87C81596808F0070805F5BF79CA8995F87D711889098A4346CDF8009002F008FB2B6E07F00707D3F804E0BEF80E20BEF848
:4039C00010C0B3F808E0CDE900013B46CDF808906146704602F060FB85F87C8185F87D7105F583430E221A60042309E0994B02221A702B6E05229A724FF410529A8106237F
:403A0000C5F87431D5F87431042B06D1924B06EB0A261A689642B8BF1E60904B93F90030FFF7EAB905F58342B3F5804F1360C5F874117FF63AAD2B6E05229A724FF4105277
:403A40009A81844B02221A7023E03B2E25D1844B1A7801331B781B0203EB0243814A1278134495F8792150070AD1B3F5804F07D8794A13600023C5F874317B4BD36146E49A
:403A8000744B02221A702B6E05229A724FF410529A810623C5F8743139E43C2E31D195F87911724811F007011ED16D4B6D4A1D7801331B7812781B0203EB0543134480F8B9
:403AC000781180F879111F21B3F5005F80F87A114FF0FC01A8BF4FF4005380F87B1100F583410B60042309E05A4B02221A70036E05229A724FF410529A810623C0F8743143
:403B000005E45B4A594B12781A2A0DD1594B01201A7813F8011C02331B7801F00801009302F03F03920912E05A2A7FF4CFAB514B1A78587913F8011C06331B7801F00801B4
:403B400003EB00230093002002F03F03920901F017FAFFF7DCBB552A10D1474A11780132127812EB01223FF4B9AB03F583410A600022C3F87421414ACA6119E11B6E05223D
:403B80009A724FF400529A810220FFF74DB80125002F3FF4ECACDDE4BAF1000F7FF41DADC6EB0803002B1CDD96FBF9F309FB136309F1FF32934207D1059BC3F3080100291D
:403BC00008BF4FF4007101E04FF4007106F01F000BEB402000F5BC7000F0ECFD4FF0010A89E44FF0000A86E4002720E6012207929BF86820920647D5079A002A44D1002E20
:403C000043D11F4B1B78002B62D0AA45C5EB0A0338BF03F1FF33132B5AD9DBF87431DFF84C80002B54D1072000F064FD022000F005FE042000F002FED8F8745101F040F911
:403C4000104BC8F8745101261D680EE5E7050020BA890000F8050020E0050020F1050020EA050020EC050020A95E000060C4FF1FE4050020E6050020EB050020294B00003D
:403C8000F2050020DCC1FF1F16B3069A944207D0AA45C5EB0A0238BF02F1FF32632A17D90B9300F0CFFF0B9B10B11D680026DCE442F20F721B68AB42A3EB050338BF03F105
:403CC000FF3393427FF6D1AC0123CBF86831CCE4099B002B7FF4C9AC002F3FF4C6ACA1457FF4C3AC344B1B781BBBAA45C5EB0A0A38BF0AF1FF3ABAF1950F1AD9DBF87431C8
:403D0000BBB92E4B2E4A1B78134403F5834303331B78DC070DD401F085F801F001F9294B284A1B784C4643F001031370012309939BE44C4699E4069AA21A1F2A27DCA145EF
:403D400025DD26BB089B089A94FBF3F302FB1343013A934207D1059BC3F30801002908BF4FF4007101E04FF40071174820400028BEBF00F1FF3060F01F0001300BEB402059
:403D800000F5BC7000F0B6FD012307936DE400222DE7022B3EF7C3AE0A4A137843F00103137001F06DFE2566C4F86461FEF77BBE236E1B8905933EE4F2050020F0050020DD
:403DC00060C4FF1F315000401F000080014B01221A70704794C1FF1F014B01225A70704794C1FF1F024B0122C3F86C21704700BF60C4FF1F034B52221A70034B0122C3F8B3
:403E0000682170473806002060C4FF1FF8B50746114C124B124E542201251A7089B20523FE222078756004F027F946F24042B9B2207804F033F92178607804F0BBF8607897
:403E400004F07AF800233372294675726078BDE8F84004F049B800BFD8C0FF1F3806002094C1FF1F2DE9F04180461E4C1E4B1F4E8FB2532201251A7039460423FE222078BD
:403E8000756004F0F9F806233946FE22A07804F0F3F8E11C46F2404289B2207804F0FEF81FFA88F246F25041A07804F0F7F82178607804F07FF8A178207904F07BF86078F1
:403EC00004F03AF8207904F037F80023294620793372737204F008F829466078BDE8F04104F002B8D8C0FF1F3806002094C1FF1F10B502F027FD074B30221C461A7002F088
:403F00001BFD8306FBD540232370BDE8104002F025BD00BF380600202DE9F8430C4691469846064620B10C2840F0BE80002700E00746634D46F040032B73230E6B73230CC4
:403F4000AB73230AEB732C74B9F1000F1ED00022134605F10C04105D08215B00DBB280EA030E1EF0800F01F1FF3118BF83F00903400011F0FF01C0B2EFD10132052AEAD132
:403F800003F07F035B0043F0010300E001234D4C6B746379FF2B21D104F054F8607104F051F8DFF828910523FE220621A07104F063F846F244521FFA89F1A07904F06EF805
:403FC000FE2206210423607904F056F809F1080292B246F25451607904F060F800236179E0796B702B7003F0E5FFA179207A03F0E1FFDFF8DC909FB90121207A03F0E6FF95
:40400000E07903F099FF0121E07903F06DFF0121207A03F069FF332389F80030284F19E0312389F8003002F087FC8206FBD502F095FCFF28E0D0322389F80030FF20FFF7ED
:4040400057FFFF28FAD1D7E73B7893B3012404F04BFA24B904F044FA6B7853B3F4E7FF20FFF746FF0C2E84B203D1FF20FFF740FF84B2154B1D68322389F80030230609D4F7
:40408000B8F1000F18D0FF20FFF732FF40EA042084B211E0284601F0DDFCC828F0D8FF20FFF726FF84B2E9E7FF2002F04BFC01273FE730BF0024CAE72046BDE8F88300BFC6
:4040C00094C1FF1FD8C0FF1FDCC1FF1FA0C1FF1F3806002000230122FFF71EBF08B5FF20FFF706FFFF28FAD108BD10B5FF20FFF7FFFEBDE8104001231A4600210D20FFF7C4
:404100000BBF00002DE9F341B64C0025B64B2946102204F10C001D6025606560A56004F0EFFB2946B14D102204F11C0004F0E8FB2B7AFF2B1DD14FF4804341F6FF720121E3
:40414000022003F0FFFD012141F6FF734FF480422872084603F0DAFDE871287A03F0DAFEE87903F0D7FEA24803F008FEA14803F019FE0C2002F052FB012002F043FB02F039
:404180002FFB0746C0EB80103E30012180B202F0C3FA012004F06EF802F01EFC0A25FF20FFF7A6FE013DFAD1284602F02BFB012004F060F8FF20FFF79BFE2B4601222946C0
:4041C0002846FFF7A9FEC0B2012868D101F058FC32254FF4D5710820FFF77CFFC0B201280ED10223FF202360FFF782FEFF20FFF77FFEFF20FFF77CFEFF20FFF779FE0BE0D3
:40420000420704D501232360FFF76FFF04E0FFF76CFF013DDDD142E0774B1D461E6800213720FFF757FF4FF080412920FFF752FF8046FFF75AFF18F0FF0F06D0304601F097
:4042400009FCB0F57A7FEAD329E02E6800213A20FFF740FFC0B210BB0546FF20FFF748FE01AB58550135042DF7D19DF80430C3F380121B06626006D4304601F0EBFBB0F564
:404280007A7FE3D30BE04FF400711020FFF722FFC1B221B93B20FFF71DFFC5B23DB13846012102F039FA0020A060044692E002F029FB022002F09EFB0C2002F0CFFA0C20D3
:4042C00002F0C0FA0121384602F026FA012003F0D1FF02F081FB012003F0CCFF02F02CFB02F024FB02F040FB29460920FFF7F2FE10F0FF0FD3D14FF48066FF20FFF7F8FD75
:40430000013E03D0FE28F8D1002601E0FE28C6D1FF20FFF7EDFDA3190136102E314D1873F6D1FF20FFF7E4FDFF20FFF7E1FD297B89091ED12B7DE87C6A7D43EA0020AB7C43
:4043400012021B0403F440331843AB7D02F440721A438009D2090232013004F0D9FA6A7C02F00F0204F0D4FA400A40EAC150A8600BE0012993D1EB7CB5F813201B0403F47A
:404380007C13134301339B02AB6000210A20FFF7A1FE10F0FF0F01D001241BE04FF48065FF20FFF7A5FD013D03D0FE28F8D1002501E0FE28F0D1FF20FFF79AFD6319013533
:4043C000102D1877F7D1FF20FFF792FDFF20FFF78FFDE1E7FFF789FE01F048FB204602B0BDE8F0810C06002034C2FF1FD8C0FF1FCD3D0000D93D0000DCC1FF1F38B5254A0A
:40440000137803F0FF00002B42D0537803F0FF00002B3DD0204C23685BBB1832995C0133C80721D5C1F34301022920D002252560FFF754FEFD20FFF75BFDFFF74FFE174B71
:4044400000221A6000F08EFFFFF74FFE44F29812134B04219D541A6E91724FF4006191810622C3F8742104E0082BD7D1DAE7012323602368012B07D1FF20FFF739FDFF28AB
:4044800002BF054B02221A602068831E5842584138BD00BF94C1FF1FE8C0FF1F34C2FF1F60C4FF1F00231A46FFF736BD184B10B51A68022A0CD0174A35211170164A1046A2
:4044C00011780029FCD041780029F9D002221A60124B1A681C46012A17D100210C20FFF7E1FF10F0FF0F10D00D4BD3F8741104290BD144F29812022098541A6E91724FF423
:40450000885191810622C3F874210023236010BDE8C0FF1F3806002094C1FF1F34C2FF1F60C4FF1F444B70B50646FF201C68FFF7DFFC0546414B32221A70FE2D0DD0204621
:4045400001F088FAC8285DD815B115F0E00F59D0FF20FFF7CDFC0546EFE7394C637AFF2B2BD103F06FFD607203F06CFDA07203F069FD0223E072A27A4FF40071607A03F02D
:404580007BFD04232A460221A07A03F075FD2D4A46F2545192B2A07A03F080FD2A4640F202210423E07A03F067FD04F10C0146F2445289B2E07A03F071FDB2B246F2545184
:4045C000607A03F06BFD204A002313601F4A617AE0795370137003F0EDFCE17A207A03F0E9FC0121207A03F0F1FCE07903F0A4FC0121E07903F078FC207A0121BDE870407F
:4046000003F072BC114B1B6A0BB1FFF74FFF44F298120F4B995C02290AD0022199541A6E042191724FF4885191810622C3F87421BDE87040FFF759BDDCC1FF1F3806002064
:40464000D8C0FF1FA8C1FF1FE8C0FF1F94C1FF1F60C4FF1F70B5224C06462368012B02D1FFF724FF31E0022B2FD11E4B1B68022B0AD12368022B0FD1FFF730FDFD20FFF700
:4046800037FCFFF72BFD07E0174B34221A70FFF7B5FE0028FBD0ECE7144DD5F87421A2B9012311460D20FFF737FC70B1FFF71DFD44F298130222EA542B6E04229A7240F6AD
:4046C00002429A810623C5F8743100232360084C236BB34203D016B1FFF700FD266370BD34C2FF1FE8C0FF1F3806002060C4FF1F94C1FF1F70B50446124D134ED5F868318E
:4047000033B102F079F824EAE474844208D170BD3378DA06F2D503F08BFBC306EED5F0E7E0B202F063F8012003F0A4FD44F29313044AD35C012B04D8BDE87040642003F011
:4047400099BD70BD60C4FF1F0550004038B5154B1A7A02F0FF001AB3134A2021117013490A78D206FCD55A6B9C6B0E4DA24208D10F4B01201A781A781A781B7800236B6004
:4047800038BD40F6F873A41A9C4228BF1C46E86B21461044FFF73AFB6B6B00201C446C6338BD00BF94C1FF1F380600206B6400405064004038B5094C0D46A16340F6F87160
:4047C000A9424FF0000328BF29466363E063FFF71DFB636B1D44656338BD00BF94C1FF1FF0B5114E114D124F00238B420E4C09D0D5F8682132B93278D20742BFC25C013304
:404800003A70F2E70B4B20221A70084A2378DB0603D4D2F86831002BF8D0074B1A781A781A781B78F0BD00BF6B64004060C4FF1F4064004038060020506400400E4B30B50C
:4048400023220E4D0E4C1A702A780C4912F0010F03D1D4F86821002AF6D00A4A107020221A70074A0B78DB0603D4D2F86831002BF8D0054B1B7830BD380600206B640040D3
:4048800060C4FF1F406400405064004038B5174C237A03F0FF0043B3637A03F0FF0023B3626BA56BAA4211D100236360104BD3F870211C462AB903F0B5FA003018BF01200D
:4048C00000E00120C4F87001012038BD40F6F873AD1A9D4228BF1D46E06B29461044FFF7C1FA636B00201D44656338BD94C1FF1F60C4FF1F38B5094C0D46A16340F6F8712B
:40490000A9424FF0000328BF29466363E063FFF7A9FA636B1D44656338BD00BF94C1FF1F0B292DE9F0412FD800230C46074619461E4EDFF880E0DFF880C0DFF880809C4222
:404940001A4D13D9D6F8680180B99EF800208C42D2B204D9D50744BF8CF800000131920742BF98F80020FA540133E8E7D5F870312BB903F057FA003018BF012000E00120A0
:40498000C5F87001BDE8F081FFF7B4FF30BF084B2122064C1A70FFF779FF20B9D4F868310BB930BFF7E7BDE8F08100BF60C4FF1F380600206B640040406400405064004010
:4049C00038B5164B2322164C16481A702278154D12F0010F124A03D1D0F868110029F5D01149002008702421197013789B0703D4D5F86831002BF8D00C4B1C78D5F87031F7
:404A0000E4B22BB903F00EFA003018BF012000E00120C5F87001204638BD00BF380600206B64004060C4FF1F4064004050640040F0B5244B24491B7813F0100F234B08BF9E
:404A40006FF07F071B7818BF002713F0100F204B08BF40221B78097818BF002213F0100F0CBF2023002311F0100F1A4908BF1026097818BF002611F0100F174908BF08203D
:404A8000097818BF002011F0100F144908BF0425097818BF002511F0100F114908BF0224097818BF002481F01001C1F3001139430A431A4346EA0203034345EA0300204334
:404AC000C0B2F0BD1450004065500040155000406450004036500040375000402A5000402B500040034B51221A70034B01221A70704700BF380600209CC1FF1F034B50220E
:404B00001A70034B01221A70704700BF380600209DC1FF1F08B50720FFF7ECFDBDE808400720FFF78BBE00002DE9F84344F29813364DEB5C002B64D144F28413EB5C552B9A
:404B400005D1B5F87E41082664BAA4B202E095F87B410426072C1ADDA91991F87E3191F87D211B0243EA024291F87F311343A3F14002B2F5FE5F3AD8244A99B2126E5068B7
:404B800011818089834202D0107800F089FF1F4F344407F5834808F10509D8F800108C422FDA3B1993F87961A21C324491421EDB93F8782102F03F02032A15D1162E16D10A
:404BC00093F8841193F8853143EA0121A1F14003B3F5FE5F0BD83B6E198199F80020D20702D5187800F05CFF02363444D5E744F298130222EA542B6E05229A724FF41852A1
:404C00009A810623C5F87431BDE8F88360C4FF1FF8B50C4607460A4D04F5BC70114628441A461E4603F046FE012F08D104F5BD70B21E28440021BDE8F84003F061BEF8BDB6
:404C400060C4FF1F2DE9F84303F0F2F800F00400B0FA80F400F0FF0503F0EAF800F0020000F0FF03B0FA80F0640940097DB173B1012003F0FFFA03F0DBF880F00400C0F3E9
:404C8000800403F0D5F880F00200C0F34000002C40F08F8000285FD1474E00F0F1FE336E4FF001081F78454C08FA07F75FFA87F9484602F081FF404602F084FF2378032071
:404CC00043EA0803237003F0D5FAFFF7B1FE054603F0AEF8430704D589EA0505EDB2A94507D2002002F06EFF237803F0FE0323705DE0334D40462B7843F001032B7003F04C
:404D0000B9FA042001F072FD44F29413F05808FA00F03843C0B202F04FFF032003F0D8FB032003F0D5FB2378404603F0FE03237003F0A0FA234B1F6803F07AF880F0020028
:404D4000C0F3400058B9D6F8683133BB384600F081FEF928F0D920E02046BDE8F8832378032043F00103237003F0B2FB032003F0AFFB2B78002003F0FE032B7002F022FF30
:404D80000720FFF7B7FC8020FFF758FDD6F87401FFF7B0FC0120BDE8F883002002F012FF2B78002003F0FE032B7001F01FFD00F05DFE0020BDE8F88360C4FF1F3150004002
:404DC00007500040DCC1FF1F44F27811134B00225A5044F27C115A5003F583410A6044F298115A546FF00301C3F8741144F29111FF20585444F292115A5444F294114FF071
:404E0000FF3058500649C3F864218A60CA6044F29C11C3F870211A665A50704760C4FF1FB4C1FF1F70B50620FFF764FC44F29812174CA35C93B944F2901344F28311E35C02
:404E400023445B5C13F0010509D013F0020F4FF01001A15414BF0B250A2500E0002544F29816A05DFFF7EAFC44F2A513A25DE25444F2A612236E997AA1549A8944F2A81327
:404E8000E25244F29913E5540723C4F8743170BD60C4FF1F44F29812084B44F2A61198540622C3F8742144F2A51298541A6E907A5854918944F2A8129952704760C4FF1F20
:404EC00044F2931310B5134CE35C012B02D8022003F0D0F944F29813E35C2BB10E4B1B6813B1402003F0B0F90C4A0020137803F0FE03137001F07AFC022003F0BBF900F05F
:404F0000B5FD4FF0FF33C4F874310023C4F86C3110BD00BF60C4FF1FE0C1FF1F3150004038B544F29915144C0720FFF7E3FB605DFFF784FCD4F86431E3B9625D0A3A012A99
:404F400014D80222C4F8742144F27812A35044F27C12A35004F58342136044F29812A354064AC4F870319360D36038BDBDE83840FFF7A6BF38BD00BF60C4FF1FB4C1FF1F95
:404F80002DE9F04F7F4D8046002814BF01240224286E1E46436887B05B781746052B25D8DFE803F00808030E1D15012300224FF0020E2FE0744B1B6813F0080319D116E0AA
:404FC000714B1B6813F0080317D11A4617E06E4B1A68132312F0080214D196461AE06A4B1B6813F0080311D11A4611E000231A4601E0002380229E460CE0002380224FF077
:405000001E0E07E080224FF0000E03E0002380224FF0030E05EB040C8CF878E104F1020E8CF8792105EB0E02B8F1000F09D0033419B1002382F878312AE0082182F8781168
:4050400011E0DFF840E182F87881221D72448CF87B81063482F8788111B18CF87D8117E008228CF87D212A1982F87831002382F8793182F87A3182F87B3182F87C31018982
:4050800082F87D310B0A82F87E31083482F87F11D0F804B09BF8013433B300239A460BEB0A0191F80124002A00F0438102F1020991F8002402F03F02964201D03F2E0DD1B8
:4050C0000AF580624B4621465A443846FFF7A0FD3F2E4C444FF0010340F02B8140F2FD32CA449245DBDD24E1012E02D03F2E40F0288144F29313EB5C012B07D921460C23FD
:40510000224A3846FFF784FD0C3406E0214608231F4A3846FFF77CFD0834022E02D03F2E40F00C8144F29313EB5C012B07D921461023184A3846FFF76BFD103406E0214600
:405140000C23154A3846FFF763FD0C34032E03D001233F2E40F0EF801823104A21463846FFF756FD012F1BD02A6E5368D9892B19080A83F8831183F882011289110A83F832
:40518000841111E060C4FF1F28C2FF1FC48A0000D08A0000D88A0000E88A0000F48A00002B19FF2283F88421042E83F8852104F1180401D03F2E4DD144F29313EB5C214656
:4051C000012B87BF1823604A1423604A3846FFF71FFD012F37D0296E4B6809899A68586800F0C2FE2B6E04A95B68DA8901921B8A0DF10F02009305AB00F0CCFE049B2A19D0
:40520000190C82F87A1111461A0A81F87B2104F5BD7281F87C312A44B2F800E004F5BF7325F803E0E81893788370B2F800E004F2811325F803E0E818937883702B6E5B68D7
:405240001B8A81F87D3144F29313EB5C012B8CBF18341434012344F29312AA5C012A0BD9082E01D03F2E07D10C232146384A3846FFF7CEFC0C34012344F29312AA5C012A0E
:405280000BD90A2E01D03F2E07D108232146314A3846FFF7BDFC083401232A6E52685278052A0BD1102E01D03F2E07D10F232146294A3846FFF7ACFC0F3401232A6E5168C7
:4052C000C98F012904D0109804F11E0181420BD8302E01D03F2E07D121461E231F4A3846FFF796FC1E340BE053B944F298130221E954052393724FF410539381062313E0DE
:40530000B8F1000F03D0631E85F8783105E0A31E1A1285F8782185F87931114B109A9442D4BF1C601A600423C5F8743107B0BDE8F08FFF268FE7042E8DD13DE70123032EBF
:4053400008E7022EFBD1EDE60C8B0000248B0000388B0000448B00004C8B00005B8B0000E005002044F278130D49002210B5CA5044F27C13CA5001F583431A60094B9A605A
:40538000DA6091F868201C4612F0100F01D01B6813B90020FFF75EF90023236010BD00BF60C4FF1FB4C1FF1F70B503205E4CC0B0FFF7A0F90023C4F86431C4F87031FFF7D3
:4053C000FFFA44F29A1344F2A312E054A35C0133A354D4F87031CBB194F86830990715D544F29313E35C012B10D902F021FDC20705D4D4F8683113B9FFF7E2FAF5E701230C
:40540000C4F864310023C4F8703180E018B1062804D1FFF7A7FFFFF753FD78E00C280AD1FFF7A0FF42F60212236EDA814FF0FF321A615A61EFE7052869D00F2867D01028D1
:40544000E9D0072803D10123C4F868315FE008285DD0092803D10723C4F8743157E003061BD510F0380F01D0FFF754FB44F29A13E25C44F2911302F0070102F04002E154E0
:4054800002F0FF032AB144F29413274AD358DB43DB0F44F29212A35439E0A0F120030F2B07D8FFF78DFA44F29A13E35C232B2CD12DE0012829D1FFF783FA002814BF064611
:4054C0004FF480760025D4F8683133B9FFF778FA0DF805000135AE42F5D19DF80030032B07D1022E11D10720FFF704F904210F4808E0012B09D1032E07D10720FFF7FAF826
:405500000B480521FFF76CF901E0FFF703FB02F08FFCD4F8643100F0010080F001000343C4F8643140B070BD60C4FF1F798B00007D8B0000184B1B68072B2AD013F001006A
:4055400009D144F29812154B022199541A6E917240F2024118E013F0020009D144F298120E4B022199541A6E91724FF468510BE013F004000DD144F29812084B0221995447
:405580001A6E91724FF4806191810622C3F8742170470120704700BF28C2FF1F60C4FF1F38B50C4C0546216E4B6809899A68586800F0DAFCA8420CD844F298130222E25425
:4055C000236E05229A724FF404529A810623C4F8743138BD60C4FF1F424B2DE9F0411A6E804652680C4652781E46032A02D10A2002F02AFE316E00274B6809899A68586805
:4056000000F0B2FC14EB080647F100070021B94208BFB042334D0ED244F298130222EA542B6E05229A724FF404529A810623C5F87431BDE8F0814FF0040ED5F860C0002287
:40564000C5F874E105F5834E274BCEF80020BCF808E0DA600EF2FF1252129C605443012CC3F8048003D195F86820D20603D58F4208BF864203D100221A60BDE8F081012209
:405680001A60DCF8043042465868714600F07CFC164B05465B6804440BB945026402144B1A681E46012A05D1124B1A68AA4201D11C6011E00120FEF7CDFF29461220FEF711
:4056C000F1FE10F0FF0F03D0BDE8F04100F078BB084B01221C603260074A12685A60BDE8F08100BF60C4FF1FB4C1FF1F0C06002034C2FF1FD4C1FF1FDCC1FF1F2DE9F84F1D
:40570000524D83462B6E0F465B685B78032B02D10A2002F099FD4E4A4C4E12682B6E12F0080A03D158684278022A08D144F298120221A95405229A724FF41C5275E01C8940
:4057400017EB0B08826821464FF00009406849F1000900F009FC0021494508BF40450ED244F298130222F254336E05229A724FF404529A810623C6F87431BDE8F88F06F53A
:405780008342146044F27812324BB4500122C3F804B01A609F60C3F80CA0336EC6F874A15B68214658685A4600F0EEFB04F2FF1464127C43284B06465B6800EB040813B9A3
:4057C00046024FEA4828254B1A681F46022A0AD1234B1A68B24206D1224AC3F8008012685A60BDE8F88F0220FEF734FF00213720FEF758FE1C491720A14228BF2146FEF7C9
:4058000051FE31461920FEF74DFE10F0FF0F12D0FFF7A8FDFEF769FC44F298130222EA542B6E04229A724FF400629A810623C5F87431BDE8F88F0B4B1A68094B5A60C3F81E
:40584000008002233B60BDE8F88F00BF60C4FF1F28C2FF1FB4C1FF1F0C06002034C2FF1FD4C1FF1FDCC1FF1FFFFF7F00024A136801331360704700BFDCC1FF1FF8B502F0B1
:40588000F9F902F00FFA02F02BFE544D07466B68002B00F09E80032001F00CFA012812D1032001F00FFA0446024605F10801032001F06EFA24B12B7A012B01D102F074F9BF
:4058C000032001F051FAAB6C444C13B1012B7AD07FE0434B434D03CBA060186844F29913EB5CE160237544F29A13EB5C2061637544F2A513EB5C04F10806A37544F2A613D9
:40590000EB5CE375D5F87431237602F091FA80F00200C0F34000607602F08AFA80F00400C0F38000A07602F083FA00F0010080F00100E07602F07CFA44F2A213EB5C80F0A1
:405940000800637744F2A113EB5CC0F3C000A37744F2A313EB5C2077E37744F2A013EB5C84F8203044F2A413EB5C84F82130E36C84F8223044F2A813EB5A1A0A84F8232030
:4059800084F82430FFF754F8174B84F825001B78042084F82630154B31469B6884F846001A0E84F842201A0C84F843201A0A84F8442084F845304022602384F8473001F0E4
:4059C00095F9012304E0042001F008FA08B10023A3643846BDE8F84002F086BDDCC1FF1FE405002060C4FF1F380600200C06002070B506460C4646221249134802F05AFFC5
:405A0000124DB6B1042101F27B1301F5C1762B442E4413F8012F100900EB800002F00F0202EB4002B34203F8042CF2D10B314629E9D1074B462C28BF46241C600423C5F83E
:405A4000743170BD848B0000D8C5FF1F60C4FF1FE0050020044B1B688342A3EB000038BF00F1FF30704700BFDCC1FF1F08B5012000F020FFBDE80840002002F0DFB9000052
:405A800008B5002000F016FF044B1B6D23B1BDE80840012002F0D2B908BD00BFDCC1FF1F30B54FF4DE331A78C1B002F00702904216D04FF4E6331A7802F00702904211D004
:405AC0004FF4EE331A7802F0070290420CD04FF4F6331A7802F00702824217D1032404E0002402E0012400E002240D464FF480721946684602F0DEFEADF80C5002F000FBD5
:405B000021016A46BC31012002F08EFB41B030BD2DE9F047A14F8EB07B682BB101F0BEF8051C18BF012500E0012501F0B1F89B4C7860002800F02F8145B1012001F014F9F1
:405B4000032001F011F90023A3646365012001F0B1F80128044640F00681FFF791FF204601F0B0F8054640228D49204601F010F929468B4800F004FB01A800F055FB044664
:405B8000002800F0EB80019A002A00F0E7800378013B052B00F2E280DFE803F0031106282B3A0EA800231DE0022A40F2D7804078A3784FF4807103EB00200002CCE0B2F5B5
:405BC000817F40F2CB8090F8015190F8026102F097FA621C3146284602F026FB031C18BF01230EA800F8203D0121B5E001F0DCFFB4E06C4C06AD94E80F00103485E80F0078
:405C000094E80F000EAC04E90F0020212846A3E0012001F0D7FF0024042000F0E7FD2546614EDFF88C81E8B201F0C6FF032002F04FFCFEF7FDFE337815F8082083F01003E9
:405C4000A842C3F3001318BF44F0010401359A4218BF44F00204B5F5807FE4D10020002601F0B0FF3546DFF84C81DFF84C91DFF84CA1E8B200F0BAFD032002F029FC98F858
:405C80000030C5F3400283F01003C3F30013B34299F8003018BF44F0040483F01003C3F3001393429AF80030C5F3800283F01003C3F3001318BF44F008040135934218BF3A
:405CC00044F01004082D86F00106D2D1374D002000F08CFD95E80F000DF10808103506AE88E80F0095E80F0086E80F00002558F825A003209AF800304FF0000943F0010331
:405D00008AF8003002F0E4FB4D4506D102F090F856F82530184208D005E002F089F856F82930184201D144F0200409F10109B9F1040FE9D19AF80030013503F0FE03042D0D
:405D40008AF80030D3D13046231C18BF01238DF818308DF81940022100F07AFA012001F003F8FFF783FE7B6D0C4C13B1012B0CD011E004F1080000F09DFA014658B1402234
:405D8000022000F0B3FF012304E0022001F026F808B1002363650EB0BDE8F087DCC1FF1FE4C1FF1F1806002011500040CC8C0000CA8B000026500040225000400450004062
:405DC00008B5FFF7CFFAFEF790F944F29812064B022199541A6E042191724FF4006191810622C3F8742108BD60C4FF1F2DE9F843294C2A4DD4F87431013348D1D5F800902B
:405E0000B9F1020F43D1264EB06DB04600283ED100F0F8FC484600F001FD802002F058FB00F008FD81460C2000F0F8FCB9F1000F1DD0F36C99072AD46B68274613B9FA20FB
:405E400002F002FAFEF75EF908B3D8F84C3043F00703C8F84C30AB6833B94FF42853FB81FB84FB87A7F856300023AB600FE0F36C9A070CD523F006030A4AF3644FF4285386
:405E8000C2F80890E381E384E387A4F8563000236B60BDE8F88300BF60C4FF1FE8C0FF1FDCC1FF1F0C06002044F29812034B9A5C12B90622C3F87421704700BF60C4FF1F58
:405EC00070B50E4C002094F87A5194F87B31002603EB052294F87E5194F87F3103EB0523D518FEF707FCB54203D0FEF769FD0136F9E70623C4F8743170BD00BF60C4FF1FB3
:405F000070B5164C94F8793103F008055B07EDB204D4236E19891878FFF7C2FD5DB1104A1368043313600023C4F8743144F29C130C4AE25070BD94F87A6194F87B3128469B
:405F400003EB0626FEF7D6FBB54203D0FEF738FD0135F9E70623C4F8743170BD60C4FF1FE0050020C15E0000064B01F2FF119B684912181AB0FBF1F012B1904228BF1046D8
:405F8000704700BF0C06002001F2FF11491202FB0100704770B5BDF81060BDF8144006FB04F5B0FBF5F50D60B0FBF4F1B1FBF6F506FB151504FB110101311570196070BD17
:405FC0002DE9F043042B079C11D0052B33D0002B59D1637822781B0403EB0262E3781344A27803EB0222A0FB0201BDE8F0836378257894F802E01B0203EB0543E6789E442A
:406000000027E1FB0E673946637925791B0403EB0563E5792B44A57903EB0525A0FB0223514306FB0313A2FB06011944401941F10001BDE8F083637825781B0203EB05439C
:40604000A57826791D44E3794FF00009013B03EB06636679A47903EB064303EB04230D4C96B294F87B8182B2E1FB0589A8FB0645E41806FB0955A4FB020145F1000502FB9A
:406080000511BDE8F0834FF0FF304FF0FF31BDE8F08300BF60C4FF1F2DE9F0471D4686B086B2002781468846DDE90E0192463B46324602F043FA042D109C0FD0052D30D01F
:4060C000002D48D1030E2370030C6370030AA370E07025716571A571E5713FE005AB0DF10F0204A98DE80005FFF754FFDDE90E01059A3B4602FB09F5324602F01FFA049B2C
:406100002A44190C2170A370190A9DF80F306170E370130E2371130C6371130AA371E2711CE005AB0DF10F028DE8000504A9FFF731FF049B1A0C2270A3701A0A9DF80F3077
:406140006270E370059B1A0E22711A0C62711A0AA271E37102E000232360636006B0BDE8F0870000054B00221A705A709A70DA701A715A719A71DA711A72704738C2FF1FDD
:406180000129F8B503D8BDE8F840FFF7EBBF457802398D42F7D8234CD4F805E005EB0E03B3F5827FEFD8077817F07F060FD1FFF7D9FF2A46811C04F1090002F07BFB012339
:4061C000C4F8055023706670A670E6701CE02368012B14D1237901339E4210D104F109032A46811C03EB0E0002F064FBD4F805301D442379C4F805500133237104E02379DE
:40620000B34201D0FFF7AEFF2268064B012A07D13A0605D50022022119705A709A70DA70F8BD00BF38C2FF1F08B508490B68022B07D1D1F805300360FFF794FF01F109001A
:4062400008BD00210160084608BD00BF38C2FF1FB1F5827F10B40A46154B4FF0000412D8012183F8114183F80D1183F80E4183F80F4183F81041014610BC03F58B70C3F8FB
:40628000122102F017BB83F8114183F80D4183F80E4183F80F4183F8104183F8124183F8134183F8144183F8154110BC704700BF38C2FF1FF8B5214C0646D4F80D31012BBC
:4062C0003AD1D4F81201C0B3374694F8113107F8023B94F81131013384F81131D4F812313E2B14D83378002163F07F033370D4F812513E223846EDB284F80D1184F80E1171
:4063000084F80F1184F8101102F0FAFA00E03E25D4F812312A465B1BC4F81231084C75702146384602F0C6FAC5F582726119204602F0CBFA3046F8BD0020F8BD38C2FF1FDA
:406340004EC3FF1F134A1449D36843F08073D360124B0C221A70124A124B1A6003F57C3303F5A07302221A601A2243F8E02C012243F8EC2C0B6823F002030B604FF0604337
:40638000C3F8802E0322C3F8002E074B00221A70704700BFF0ED00E0040304E0E846004055CEACC5B00F00E038060020F8B572B6894B61221A700024A3F5F06358221C8070
:4063C0009A7001229A80854A18233121137051801371834B06221A705222A3F580731A70804B814A1B78814EDBB2137040F619327F4B19251A8041F2512223F8022C337854
:406400004FF4F07003F0010343EA440402F060F8013D04F0030421D0032CF0D1754B4FF480721A8007221A70734A002448211470917002221C705C7103F8032C6F4A704DBB
:406440001378062643F007031370634BC1221A706C4A137843F00403137000E0FEE706FB045300219A881868013402F049FA062CF5D1654B654C03F110063546224618687C
:406480005968083303C2B3421446F7D1002211465F4C55F8210004EB420320F0FF06C0B2024404EB4200013303300233834206D013F8037C13F802EC07F806E0F5E7013193
:4064C0002A29E6D1534B00221A60534B53491A461D4652F8040B524C08601068514A01F5594110609868FB3190600A784E4842F002020A700A7C42F002020A744B4A1178AD
:4065000041F040011170017841F01001017055F80C0F696803C4184629891D46218050F8161FC4F8BA1041684148C4F8BE10194651F81E4F09790460017155F8230F3D4CF4
:40654000696803C4184629891D46218050F82D1FC83C44F81E1C4168184644F81A1C50F8351F44F80E1C416855F83D0F44F80A1C696803C418462989A4F68854A4F8881DE3
:4065800050F8471FC4F8921D41681846C4F8961D50F84F1FC4F8A21D41682748C4F8A61D53F8571F01605968416024490B7843F008030B70224B01F5AA511B780C31DBB29C
:4065C00003F007001B0908704B701E4B442119700FCA07C42380F8BD0048004086400040004300400F010049A146004025420040224200400440004006400040A2430040EC
:40660000EC8C0000E8460040108D000000500140C88D000000760040009C0000087600400051004010760040C2430040A0430040CB510040F05100406251004022430040AD
:40664000CF0100497658004008B502F007F903680C2B00D1FEE7FEE780B51148114B0025C0B1A3F1100192C922460439161BB74204D051F8046F42F8046BF7E7114653F8FF
:40668000046C8C1AA64202D041F8045BF9E701381033E5E702F0E8F8FBF7ECFEFEE700BF01000000789E0000124A134B10B51A60124A134C1368134843F400731360002317
:4066C000032B98BF54F823204FEA830188BF0E4A0133302B4250F3D10C4B1A780C4B1A700C4B084A1A60FFF761FEBDE8104001F0E5BB00BF0004FA050CED00E014ED00E001
:406700000024000000C0FF1F49660000BC760040C0C0FF1F08ED00E0F0B52B4B2B4E1F78328807F0070792B290424BD0284D2C78E4B26FB932B158B91A7842F040021A704D
:406740003080F0BD30801A7802F0BF021A70F0BD14F0010421D01F4F1F4B00264FF0010E1E7087F800E03E7117F8086C06F07F0607F8086C144E3678360700D568B9174E95
:40678000328007221A701A7812F00102FBD12B7803F0FE032B70104B1A702B780C4ADD070BD50E4B0029188014BF03220122013B1A701A78D207FCD4F0BD044B18801378E8
:4067C0001C431470F0BD00BF8240004080400040A2430040104000400140004002400040014B188880B2704780400040014B1870704700BF72640040014B1878704700BF09
:4068000072640040044A0001137800F0100003F0EF0303431370704730510040044A00F00E00137803F0F10318431070704700BF1C500040024B1878C0F30010704700BF71
:4068400031510040044A00F00E00137803F0F10318431070704700BF1A500040044A00F00E00137803F0F10318431070704700BF1B500040074A0223136002F688321268CE
:40688000E0215064044A11706FF440710A441360704700BF80E100E001E400E0014B02221A60704700E100E0014B02221A60704780E100E0044A4000137800F0020003F0C1
:4068C000FD030343137070470051004008B501F007FE0B4A1378A2F5807243F0200382F80031137843F01003137012F8023C43F0100302F8023CBDE8084001F0F5BD00BF01
:406900009665004008B501F0EBFD074A137803F0EF03137012F8023C03F0EF0302F8023CBDE8084001F0E0BD96640040014B1878704700BF66640040014B1878704700BF7A
:4069400064640040034A13785B07FCD5024B1870704700BF6664004044650040014B1878704700BF5465004008B50B4A0B4913789B0601D50B78FAE701F0B2FD084B1A782A
:4069800042F001021A701A7802F0FE021A70BDE8084001F0A9BD00BF64640040546500409465004008B5084B0F221A70FFF7DCFF064B02221B78064B1B78064B1A70202228
:4069C00003F8022C08BD00BF8665004066640040646400408664004010B5054C23781BB9FFF7E0FF01232370BDE81040FFF76EBF52C4FF1F044A00F00E00137803F0F10368
:406A000018431070704700BF19500040F8B501F067FD444A01271378022643F001031370137C414C43F001031374404B02F5E3521F700B3203F8946C1378054603F07F0394
:406A40001370002001F016FC2378394A03F0F90323701378384603F0DF03137023783B43237001F007FC282001F004FC314B30461A7802F07F021A701A7802F0BF021A7046
:406A800023783343237001F0F5FB23782A4A43F004032370002313702846537001F024FD0721172001F008FC2449172001F0F6FB0721182001F000FC2149182001F0EEFBE9
:406AC0000721152001F0F8FB1E49152001F0E6FB0721084601F0F0FB1B49072001F0DEFB0721082001F0E8FB1849082001F0D6FB0721092001F0E0FB1549092001F0CEFB73
:406B000007210A2001F0D8FB12490A2001F0C6FB07210C2001F0D0FBBDE8F8400E490C2001F0BCBBA5430040944300409D60004012600040F851004084600040D372000010
:406B4000C5700000D172000005720000317200006172000099720000D974000008B5204B01221A705A701F4B1F4A1870002313701E4A13701E4A13701E4A13701E4A13700C
:406B80001E4A13701E4A13701E4B4FF400021A604FF080721A604FF400121A6080221A604FF480721A604FF400721A604FF480621A60154B19B91A7802F0FE0202E01A789A
:406BC00042F001021A70114B03221A70802203F8202C012001F07CFC0D4B04221A7008BDD20600204C0600205206002050060020510600204D0600203C0600204F06002072
:406C0000C806002000E100E009600040286000401260004070B5074C054623780E461BB9FFF7F4FE0123237031462846BDE87040FFF794BF53C4FF1F0C4B01221A705A70D7
:406C40000B4A002313700B4A13700B4A13700B4A13700B4A13700B4A13700B4A13700B4B03221A70802203F8202C7047D20600205206002050060020510600204D06002094
:406C80003C0600204F060020C806002028600040014B1878704700BF51060020044B1A7802F0FF001AB118780022C0B21A70704750060020024A0C2303FB002040787047FE
:406CC0005C060020431E072B0CD8074A064B00010344805C5B7800F00F0043EA0020023880B2704700207047FC5F0040431E072BF0B531D8194B0C2505FB0035EC88184F3B
:406D0000A4B2C4F50074A2424FF00C0404FB003488BFEA88E67884BFC2F5007292B2104C46EA12260501EE552C44D6B2667041B90C2202FB0030002343704379DBB2A37041
:406D4000F0BD0E46074F2F44751AADB2AA42EFD916F8015B3D72F7E7F0BD00BF5C060020FC5F004070600040431E072B0AD8064A0C2303FB002300225A705A79034BD2B271
:406D800000011A54704700BF5C060020FE5F004038B505461446D1B1431E072B19D8FFF791FFA04203D22846FFF78CFF04460A4609482B011844531A9BB29C4203D9037AA7
:406DC00002F8013BF7E72846FFF7CEFF02E00C4600E00024204638BD70600040431E072B9FBF044B0001185C00F0100094BFC0B200207047FE5F004030B51A4A1A491B4DA9
:406E00000878138803449BB21380194A00231488D8B2A4B27CB1082B0CD050680078C0B2E85450680133013050601088013880B21080ECE718460B780E4C082B0E4A00D02B
:406E400040B10E4D2B7883F080032B700F232370022301E0022323701370094B1870087030BD00BFCC060020C806002000600040400600203D060020520600204E06002057
:406E8000C9060020074B02221A70074B80221A70064B0F221A70064A00231370054A012013707047520600204E0600203D060020C8060020C906002030B5164B16491B7855
:406EC0000A8803F00F03023BDBB21A4492B20A80124C134A0020118889B279B173B15568215C013BC9B229705168DBB20131516011880130013989B21180ECE7094A1370DC
:406F0000094A137883F080031370084B0B221A7030BD00BF29600040CC0600200060004040060020C90600204E0600203D060020064A06231370064A01201370054B8022DB
:406F40001A70054B00221A70704700BF520600203D0600204E060020C9060020054B9A683AB19A68044910709A680988518000229A60704740060020CC06002008B5124B22
:406F80001A78D2B21A701B78DBB21A0602D50F4A137008BD0220FFF7E1FF0D4B1B7803F06003202B05D0402B06D043B900F0C0FC04E001F09DFA01E000F0ECFD10B9034BFA
:406FC00003221A7008BD00BF286000403D0600200060004008B5084A084B0120197813880B449BB21380064B00221A70FFF7B6FF044B03221A7008BDCC060020C80600206A
:40700000520600203D06002008B50C4B1B78DBB2042B07D0062B09D0022B0DD1BDE80840FFF7D8BFBDE80840FFF746BF0320FFF795FF034B03221A7008BD00BF520600201E
:407040003D06002008B5054B002201201A70FFF785FF034B03221A7008BD00BF520600203D06002008B50A4B1A7832B11A78094942F080020A7000221A70074B0022012023
:407080001A70FFF76BFF054B03221A7008BD00BF3C06002008600040520600203D060020074B1B78DBB2042B05D0062B05D0022B05D1FFF7A1BEFFF7C5BFFFF7D3BF7047F1
:4070C0005206002038B51D4C2378DBB2DD0634D518060AD503F00F03012B2ED1FFF74EFF174B1B78190609D538BD5A0602D5FFF7D7FF03E09D0620D5FFF786FF23781B06A2
:407100001BD4104B1A78104B1B7813430F4A13701278934211D10A4A0849154613782078DBB2000605D41378DBB20B700B7803F00F0328788342F1D138BD38BD286000408F
:407140003D0600204E060020C906002029600040054A00231380054A916819B191680B7092685380704700BFCC060020400600200E4808B503889BB213B9FFF783FE13E039
:407180000B4B02221A700B4B00221A70FFF7E0FF094AD1799379028843EA012392B2934238BF0380FFF728FE012008BD40060020520600204E0600200060004008B50C4BD5
:4071C00004221A700B4B80221A70FFF7C1FF0A4A0120D179937943EA012308490A8892B2934238BF0B80064B0B221A7008BD00BF520600204E06002000600040400600208F
:407200003D060020084B01221A700F3B9B7C074B1A7B02F00302012A1EBFDA7B82F08002DA7301225A7370470B6000405C060020094B02221A700F3B93F82230074B1A7E27
